:04000000803108281B
:1000080080318931DC21090080313E282F28A92739
:100018008031672680316A262000CE012000CC017D
:1000280008000230B900BA00672680312000CE01EE
:100038006A26803112280330B900BA006D26803153
:100048004627BB0008000430B900BA006D2680318D
:100058004627BC0008003A08013A03190B28033A5E
:1000680003191528013A03191F28073A03192728E5
:100078000B28080020308400003085003530893195
:10008800D6218031A0308400003085003630893197
:10009800D62180312030840001308500303089310C
:1000A800D6218031A030840001308500403089316C
:1000B800D6218031E730840089308500633086009E
:1000C800003087000D308931D02180311A3084000A
:1000D8008A308500D6308600003087001630893196
:1000E800D0218031200078288A319D228031C42394
:1000F80080315721803121001030CE01CE0AF00026
:100108001F30F100F620803170082100CF001F3029
:10011800F001F100F620803170082100D000182786
:10012800803123278031013A031DA3288D312C25E6
:1001380080318D316C2580318D31072580312D2717
:100148008031013A031DAF286400B2268031DB22DA
:1001580080313F2780310E278031013A031D9328D3
:100168003D217408CD007308CC008A310522803106
:100178007408D3007308D2003908D10010218031E7
:100188007408BD007308BC0000303D0296300319A6
:100198003C020318D128CE01DA2802303D0227306C
:1001A80003193C02031CDA28CE01CE0A20002208DB
:1001B8002100CB00200023082100CA00FA23803147
:1001C800200022080319EB288B310D2380312000F1
:1001D80023080319F2288B31042380312000A2015F
:1001E800A301932800308B1B0130F2008B13700899
:1001F80023009100710892001513151400000000E7
:100208007208031D8B1703198B1323001408F100C0
:10021800F0011308F00408000B3029218031222155
:100228008031003A031913294F217108F60070082C
:10023800F5007608F4007508F300080003102100A3
:100248009D1C03140030093D0800F100F000F00D7A
:10025800F00D21001D087006833970069D001D14DD
:10026800F2011430F20A7202031C352921009D1490
:1002780008000D302921803122218031003A0319EC
:1002880040294F217108F6007008F5007608F4003F
:100298007508F30008001C08F100F0011B08F007BE
:1002A8000318F10A080062218031682280317C221B
:1002B80080316B228031D8228A31512AD22780316D
:1002C8008E2180310C30F0000630F101F2007D21E2
:1002D80080317C2780318E2180310C30F00007304E
:1002E800F101F2007D2180310D309C2180310B30ED
:1002F8009C297008803E86000030713D87000130DF
:10030800F300720A8829F335890B87297308FF3AA5
:1003180081050800F308031D962970084D27FF3A48
:1003280081050800730B080070084D278104080038
:10033800F100043071020318B6290130F000710A87
:10034800A629F035890BA529700821008C040130F5
:10035800F000710AB029F035890BAF297008230025
:100368008C0408007108043A031DBF2921008C166B
:1003780023008C1608007108053A03190800710853
:10038800063A031908007108073A031908007108AA
:10039800083A031DD62921000D1523000D15240048
:1003A8000D1108007108093A031DE12921008D1576
:1003B80023008D1524008D11080071080A3A031DC9
:1003C800EC2921008D1423008D1424008D100800C1
:1003D80071080B3A031DF72921000D1623000D168D
:1003E80024000D12080071080C3A031D022A21008E
:1003F8000D1423000D1424000D10080071080D3A87
:10040800031D0D2A21008D1623008D1624008D1240
:10041800080071080E3A031D162A21000E15230044
:100428000E15080071080F3A031D1F2A21008E15AA
:1004380023008E1508007108103A031D282A210090
:100448000E1623000E1608007108113A031D312AF2
:1004580021008E1623008E1608007108123A031D1B
:100468003A2A21000E1723000E1708007108133AC4
:10047800031D432A21008E1723008E1708007108D8
:10048800143A031908007108153A0319080071088D
:10049800163A031908007108173A03190800710879
:1004A800183A031908007108193A03190800710865
:1004B8001A3A0319080071081B3A03190800710851
:1004C8001C3A031D0800080000308A31302A200039
:1004D800A30178228031912780318E2180310E301E
:1004E800F000F101F2017D290230F001F00A802AC2
:1004F8000A30F0000030802AF400740B9D2A200096
:100508006E087006031908007008EE00F1001F302D
:100518008B279030723D8500003F2100C600013FC7
:10052800C700D0302000E5000730E600A801A80A7F
:1005380008007408023A031DBB2A200068087006E8
:10054800031908007008E800F10029308B27903063
:10055800723D8500003F2100BE00013FBF002030F2
:100568002000E3000330E400A401A40A0800F40812
:10057800031D080020006B087006031908007008A6
:10058800EB00F10001308B279030723D8500003F71
:100598002100C200013FC300D030EA000730EB0061
:1005A8002000A601A60A08000130F001802A632372
:1005B8008031B408031DE32A0030EC228031210089
:1005C800B508031DEA2A0130EC2280310230EC2AFA
:1005D800FD00FA01FB01FD08031DF62A3930FA0077
:1005E8009030032B7D0BFC2A5730FA009030032BF8
:1005F8007D08023A031D042B6730FA009030FB0097
:100608007B08F1007A08F0007D08313E84009030C4
:100618000318013E85000008F2007D35A83E8600DB
:100628008701403FF300413FF4007D08B73E860054
:100638000108F5007D08343E840090300318013E1F
:1006480085000008F6008B31B8238031FC007D0856
:10065800B13E8600870101087C06031D502B7D08EA
:10066800AE3E8600063001027D0803183F2BAE3EE1
:100678008600810A7D08AE3E860087010108053A9A
:10068800031D5C2B7D08B73E86007D08B13E8400C3
:100698008501000881005C2B7D08AE3E860087013D
:1006A8000108003A03195C2B7D08AE3E86008101E3
:1006B8007D08B13E860087017C0881000800F501AD
:1006C8007508832780312921803122218031003A21
:1006D8000319692B4F2180317535A03E86008701AB
:1006E8007008C03F7108C13F0430F50A7502031C49
:1006F800642B20081E3EF3000030213DAE278031D8
:10070800031973020318932B22081E3EF3000030CE
:10071800233DAE27803103197302031C962BB401C5
:10072800B40A972BB40124081E3EF3000030253D7F
:10073800F40004307402003003197302B501031881
:10074800B50A26081E3EF3000030273DF4000430A9
:100758007402003003197302B6010318B60A2008A0
:100768002202A8002108233BA9000430A907250874
:10077800AB002408AA002708AD002608AC00080032
:10078800C9238031E8238C31EE2CF2017208B43E83
:100798008600870181017208B13E860081017208D6
:1007A800AE3E860003308101F20A7202031CCA2B96
:1007B800F2017208832780319C2180310430F20ACB
:1007C800720203180800DD2B74268031F6017608C2
:1007D800223E8600870181017608203E860002308D
:1007E8008101F60A760203180800EB2B2000B308F3
:1007F800031D2A2CB301B30AB401B40AC401B5011C
:10080800B50AC5014508CD000030B601B60ABD01DC
:10081800BD0A21005302BA3003195202031C1B2CD3
:1008280001305302533003195202031C1F2C2000BD
:10083800C001C00A080002302000C000C101C10A7E
:100848004908FB2720004908D0000800F601F801F4
:1008580021004A0B352C2000C208031D352CF60157
:10086800F60A21004B0B3E2C2000C308031D3E2C2A
:10087800F801F80A21004A082000C20021004B08AC
:100888002000C300210051082000C900F7014A08D0
:10089800210051060319522CF701F70A51082000CC
:1008A800CA00340B612C2100CE08031D682C0230CD
:1008B8002000B400C401C40A682C21004E0B682C27
:1008C8002000B401B40AC4012000350B742C490877
:1008D800043A031DF22C0230B500C501C50A7B2C71
:1008E8004908043A0319F22CB501B50AC5014508AF
:1008F800CD00F22C21004F0B9D2C20000330C408A2
:10090800031D902CC801C80AB600C9278031672684
:1009180080316A2680315D2DB6000230B700B800FC
:100928000330B900BA006D26803146278031BB00FC
:100938005D2D00305302BA3003195202031CAB2C50
:1009480001305302533003195202031CB52C0230F4
:100958002000B600672680316A2680312000CC014D
:100968005D2D03302000B600B72780315D2DA52707
:10097800803103195202031C5D2D013053024730A8
:1009880003195202031CB52C5D2DA12780310319D0
:100998005202031CD62C0130530253300319520261
:1009A800031CDC2C2000BB01BC01B901B701AB2C36
:1009B8002000370BEE2C440BE62C480BE62C0230BB
:1009C800C801922C440B5D2D0230B700B8000A20F4
:1009D80080315D2D7830942580315D2D3608013ABF
:1009E80003197E2C033A0319BB2CC92C2100500B88
:1009F8000E2D03302000BD00BE01BE0ABF01BF0A94
:100A08003B278031382780312000CF01CF0ACB0126
:100A1800CB0A662D00305302BA3003195202031C68
:100A28001C2D01305302533003195202031C222D8E
:100A380002302000BD0071268031662D0330200071
:100A4800BD00D9278031662DA527803103195202B0
:100A5800031C662D01305302473003195202031C50
:100A6800222D662DA127803103195202031C432D24
:100A780001305302533003195202031C462D200043
:100A8800BE011C2D20003E0B592DCF01CF0A760B3D
:100A9800662D0230BE00BF00782280312000CF01D1
:100AA800712680312000CB01662DCF01760B662D93
:100AB800002D20003D08013A0319FA2C033A0319C6
:100AC800282D362D2000400B792D003021005302AF
:100AD800C43003195202031C080001305302473086
:100AE80003195202031808001F2CA127803103198B
:100AF8005202031C862D013053025330031952024F
:100B0800031C892D2000C1011B2C2000410B912DB5
:100B1800770B08000230C100242C770B0800222C28
:100B2800F500C408031D5B2EBB01BC01B901C92730
:100B38008031672680316A2EB2278031010BAC2DB7
:100B48000330B900BA006D2680314627BB00080083
:100B5800450B0800C7010430B900BA006D26803182
:100B68004627BC000800B2278031010BBF2D043096
:100B7800C601C60AB02DC508031D0800B901B90A87
:100B8800BA01BA0A672680316A262000CE01200001
:100B9800CC010800CE01CE0A750886008701010B3A
:100BA800DF2DBB01A9278031672680316A26200006
:100BB800CE01CC010800450B032EC701C70ABB01B3
:100BC800AF2D9727803103194C0203180800033012
:100BD8002000BB00CE2F9727803103194C02031C3D
:100BE800EB2D01304D02ED3003194C02031C0800B7
:100BF8002000BB01BB0A672E01302100F62D3B08FF
:100C0800013A0319E52D033A0319EF2D002ECE0101
:100C1800CE0AC508031D182EC708031D182EC608BE
:100C2800031D182EBC01D62DC508031D242E47030D
:100C38000319202E460B242E0330C601BC01A52D16
:100C4800750886008701010B532E0230C601BC01CE
:100C5800B900BA00672680312000CE016A268031AB
:100C6800CB2D9727803103194C0203180800033055
:100C78002000BC00EE2D9727803103194C02031C7D
:100C88003B2E01304D02ED3003194C02031C0800C5
:100C98002000BC01BC0AFF2D01302100462E3C0873
:100CA800013A0319352E033A03193F2E502E3908FD
:100CB800013A0319A02D033A0319B72D013A031974
:100CC800CE2D0B2E0800D22780318E297C2780312B
:100CD8008E297C278031F30A8E29912780318E292D
:100CE800F5019B278031F000413FF1007508692725
:100CF8008031F200932680319B278031F000413FFC
:100D0800F100750869278031F200F301F30AA22681
:100D180080310230F50A750203180800752E700834
:100D2800803E860000307127803181047008803E43
:100D3800860001307127FF3A8105080021009513CC
:100D4800730BAA2E70085B2781040800F308031DA3
:100D5800080070085B27FF3A81050800F801780849
:100D6800BC2680310230F80A780203180800B32E36
:100D7800F70000278031F600F608031DE52E7708F6
:100D8800203E860087010108033A031DDC2E770800
:100D9800223E860001030319D62E7708223E8600DC
:100DA8008101810A7708203E86008701810AF92E91
:100DB8007708203E8600033087010102031CD62EE7
:100DC800F92E760BF92E7708BA3E8600870181083E
:100DD800031DF92E7708203E86000108003A031902
:100DE800F92E7708203E860081017708BA3E8600F2
:100DF8008701760881000800F5007535E63E860013
:100E08008701403FF000413FF10075086927F20073
:100E18008931F4291430F0012E02031C162FAE017B
:100E2800F001F00A700808003C30F00120002F02A1
:100E3800031C212FAF01F001F00A700808000430EC
:100E4800F0013002031C2B2FB001F001F00A7008EA
:100E580008000A30F00120003102031C362FB101CE
:100E6800F001F00A700808000230F001802A91278A
:100E78008031F30A8E298D31F32580318E31402659
:100E88008D31AD2D20000230CE01CE0ACC01CC0A26
:100E98000800003E86000130713D87000130F400F3
:100EA800720A572FF435890B562F74080800003E34
:100EB80086000230713D87000130F400720A652F08
:100EC800F435890B642F74080800373E840090308D
:100ED8000318013E850000080800713D87000130B5
:100EE800F300720A782FF335890B772F73080800FF
:100EF8000C30F0000730F101F200F30108002D3E3C
:100F0800840090300318013E850000080800F201B3
:100F1800F135F20D7107840008000E30F000F10180
:100F2800F201F3010800013021004D02D534753576
:100F3800E63E86008701403F08000030210053024A
:100F4800BA34003021005302C434B901B90ABA01D5
:100F5800BA0A0800F400043074020034CE0175089F
:100F68008600870108003808013A0319C02F033AA0
:100F78000319C52FC52F0800C9278031672680317E
:100F88006A2E0230B700B8000A28B701B70AB801BC
:100F9800B80A0800D2278031F30A8E290C30F000F5
:100FA8000630F101F200F3010800F22FBE01BE0A7B
:100FB800BF01BF0A3B27803138272000CF01CF0A65
:100FC800CB01CB0A08000230BE00BF007822803176
:100FD8002000CF0171262000CB0108003F08013A0C
:100FE8000319DA2F033A0319E72FE72F0800F50052
:060FF800F0000130802A28
:1013A000FE0012001E00FE0BD129003464008001F3
:1013B0000131890BD72900340B1D08000B112000C7
:1013C00032089507E329B00AB10AAE0A08002034B2
:1013D0000334D034073401346434033401346434C6
:1013E00003340134643403347008860071088700C4
:1013F0000108F300720AFD29F336890BFC297308F2
:10140000F4000130F40574080800123081312921FC
:101410008A31813122218A31003A0319092A813126
:101420004F217108F6007008F5007608F400750881
:10143000F3000800003400343434003466340034DF
:101440008E340034D0340034063401343334013463
:10145000F43401340D3400340D340034D034073406
:10146000F20021000E157235D63E86008701403FFE
:10147000F000413FF100F136F00CF136F00C70084D
:10148000250091007235D63E860001080339F00030
:10149000F00E13087006CF397006930021000E116C
:1014A00008002100D401D5011830F001F101F2004B
:1014B0003330F3018B228A310A30F001F101F2005E
:1014C000CA30F3018B228A310630F001F101F200BB
:1014D0004B30F3018B222000B601B701B801B901EE
:1014E000BA01BB01BC01B401BD01BE01BF01C00115
:1014F000C101B501B301C201C301C401C501C601E7
:10150000C701C801C901CA01CB01CC01CD01CE017F
:10151000CF01D0010800F500F4000130F2020030E4
:10152000F33B720A0319730A031908007408860052
:10153000870170088100F40A8D2A8B130F30C622B0
:101540008A310730CF228A31E9228A31B2228A31A8
:10155000DC228A31DB228A31DA228A31F8229513A1
:101560008B17080021000E15783020009B00250005
:101570001308F0390C389300200091101C08FC3936
:1015800002389C001C1521000E110800F00009070C
:10159000090709070238210099009A010800F000A4
:1015A000FF3A031DD62A7035970008000314700D0A
:1015B00097000800080008000E168E128E112300F6
:1015C0008E110E128E122400940122309500920189
:1015D000080015171508F8390438950095111516E7
:1015E0009512C03020009500B2000B118B16080038
:1015F00021001D149E171E088F3960389E00FC3094
:101600009E059B019C0108001F30D501D600A0302B
:10161000D7004F08D800D901172B1030D5001F3044
:10162000D600A030D7004E08D800D901172BFF30C4
:10163000DB001F30DC00DB065508DB055608DC0547
:101640005508DA001F30DA05DD015D08F000F10110
:101650005B08F0075C08F13D8031F6208B312000FB
:101660005D355707FD008600013087007008C03FD8
:101670007108C13F2030DD0A5D02031C252B5A355D
:101680005707FD0086005808C03F5908C13F5C0855
:10169000F4005B08F3005708F5004E2BFF30FA000A
:1016A0001F30FB00FA067308FA057408FB050030CA
:1016B0008B1B0130F9007B087406031D612B7A082F
:1016C0007306031D08008B137408F1007308F00003
:1016D0009B238B31151315159516FC0173082300F8
:1016E0009100740892007C357507F6008600013081
:1016F0008700010893007C357507F6008600403F9F
:10170000F700413FF80094007C081F3A0319951236
:1017100055309600AA309600951400000000F30A98
:101720000319F40A2030FC0A7C02031C6E2B2300F0
:1017300015117908B32B00308B1B0130F2008B138D
:1017400070082300910071089200151315161515E5
:1017500055309600AA309600951400000000230032
:1017600015117208B32B031D8B1703198B13080077
:10177000E8248B312000D500013FD60074085602C2
:10178000031DC42B73085502031CC82BF801C22C7F
:101790007208C4248B31DC0076085902DB00031C7C
:1017A000DC035C087402031DD72B5B087302031C67
:1017B000ED2B7208C4248B3176085907DB005A08D8
:1017C00003185A0ADC007402031DE82B5B0873023D
:1017D0000318ED2B7208FF3E922CE8248B31D500C4
:1017E000013FD6007402031DF72B55087302031C3A
:1017F000912C7208C4248B3174085A02031D022CE8
:1018000073085902031C912CF9017208FF3ED500A0
:10181000FF3003180030D600803A803C031D122CA4
:10182000550879020318432C79082000D9248B31FC
:101830007402031D1D2C57087302031C412C7908E8
:10184000D500D601D535D60D55087007D7005608F6
:10185000713DD80002305707840058080318580A11
:101860008500003FD900013FDA0074085A02031DC9
:101870003B2C73085902031C412C7908F7007208AD
:10188000F900F90A052C7708F90075060319552C9B
:101890007908013E2000D500003003180130D60041
:1018A000750855065604031D942C79082000D92488
:1018B0008B3176085707D90058080318580ADA0000
:1018C0007402031D652C590873020318692C7908EA
:1018D000922C76087307D50074080318740AD60092
:1018E0007908D700D801D735D80D57087007D90027
:1018F0005808713DDA000230590784005A0803186D
:101900005A0A8500003FDB00013FDC0056085C02FC
:10191000031D8C2C55085B020318912C7908013E9D
:10192000922C7508F800C22C7908D9248B317908DB
:10193000D900DA01D935DA0D59087007DB005A08E9
:10194000713DDC0002305B0784005C0803185C0A10
:101950008500003FDD00013FDE0057085D07DF0026
:1019600058085E3DE0007408E2007308E100E135CC
:10197000E20D60086202031DBF2C5F086102031CB8
:10198000672C8E2C78080800D500D601D535D60DE9
:1019900055087007D7005608713DD800FE3057072C
:1019A0008400FF30583D8500003FD900013FDA0038
:1019B0000800D500D601D535D60D7008550784002E
:1019C0007108563D8500003FD700013FD800080050
:1019D0007008840071088500003F08000E30F00098
:1019E000F101F201F20A81317D218C3123008E1048
:1019F000ED27F30A81318E218C31093081319C2110
:101A000003302000D100D201D300D401080020000F
:101A1000670B0800640863040319080021003E08EE
:101A2000643A3F04031D1C2D2000690803190800B7
:101A3000A0272000E90108003F08033A8430031979
:101A40003E060319252D2000080020006903031914
:101A500008007E278C31FC2F6D0B0800660865049A
:101A600003190800D8278C317408C5007308C40016
:101A7000033EF7000030453DF80047087802031D9B
:101A8000432D4608770203184D2D20006F080319D7
:101A9000080018272000EF0108004608033EF70061
:101AA0000030473DF80045087802031D592D4408D1
:101AB00077020318622D20006F0303190800F62631
:101AC0008C31F82F20006F08023A03190800D42641
:101AD00002302000EF0008006A0B080021006B08AC
:101AE0006A0403190800D7278C317108C1007008F7
:101AF000C000033EF7000030413DF8004308780283
:101B0000031D842D4208770203188E2D20006C08D7
:101B1000031908005C272000EC0108004208033E7E
:101B2000F7000030433DF80041087802031D9A2D6C
:101B3000400877020318A32D20006C030319080046
:101B40003A278C31F42F20006C08023A0319080060
:101B5000912602302000EC000800670BB72D6408C6
:101B600063040319B72D0130E3020030E43B630343
:101B70006404031DEA2DE301E401A501B2268C31C2
:101B800003302000E900E701EA2D24030319CC2DDE
:101B90002408053A031DD22DA401A501A50AE701D9
:101BA000E70A08002408023A031DDA2DA0272000C6
:101BB000E90108002408033A031DE12D7E278C313A
:101BC000FC2F2408043A031D0800B226033020002D
:101BD000E90008002508003A0319C52D013A031948
:101BE000F22DF22D08006D0BFD2D6608650403191A
:101BF000FD2D0130E5020030E63B65036604031D60
:101C0000372EE501E601A901D4268C3103302000EE
:101C1000EF00ED01372E28030319122E2808053A8C
:101C2000031D182EA801A901A90AED01ED0A08005B
:101C30002808023A031D202E18272000EF01080073
:101C40002808033A031D272EF6268C31F82F280882
:101C5000043A031D0800D42603302000EF000800DA
:101C60006F08023A031D0800ED01A90108002908C8
:101C7000003A03190B2E013A0319302E3F2E0800AB
:101C80006A0B4B2E21006B086A0403194B2E01309E
:101C9000EA020030EB3B21006A036B04031D872E30
:101CA000EA01EB012000A70191268C3103302000CE
:101CB000EC00EA01872E26030319622E2608053A56
:101CC000031D682EA601A701A70AEA01EA0A080077
:101CD0002608023A031D702E5C272000EC01080044
:101CE0002608033A031D772E3A278C31F42F260855
:101CF000043A031D0800912603302000EC00080080
:101D00006C08023A031D0800EA01A7010800200040
:101D10002708003A03195B2E013A0319802E902EF2
:101D20000800ED2781318E218C319F302000530532
:101D3000F50067305405F6007508D3009830760436
:101D4000D400C2278C31AC005308C2278C31AD00BF
:101D5000CE278C3120002C08CE278C31ED27F30ABA
:101D600081318E29ED2781318E218C317C3020000C
:101D70005105F500F0305205F60083307504D100AE
:101D80000A307604D200C2278C31AA005108C2273B
:101D90008C31AB00CE278C3120002A08CE278C3125
:101DA000ED27F30A81318E29ED2781318E218C3187
:101DB0007C3020005105F5000F305205F6008330CD
:101DC0007504D100A0307604D200C2278C31AA005D
:101DD0005108C2278C31AB00CE278C3120002A0855
:101DE000CE278C31ED27F30A81318E29ED27813101
:101DF0008E218C317C3020005105F5000F305205CA
:101E0000F60083307504D10090307604D200C227EA
:101E10008C31AA005108C2278C31AB00CE278C31FF
:101E200020002A08CE278C31ED27F30A81318E2934
:101E3000ED2781318E218C317C3020005105F50059
:101E40000F305205F60083307504D10060307604FF
:101E5000D200C2278C31AA005108C2278C31AB00B6
:101E6000CE278C3120002A08CE278C31ED27F30AAB
:101E700081318E29ED2781318E218C319F302000D8
:101E80005305F50067305405F60040307504D30063
:101E900098307604D400C2278C31AC005308C22796
:101EA0008C31AD00CE278C3120002C08CE278C3110
:101EB000ED27F30A81318E29ED2781318E218C3176
:101EC0009F3020005305F50067305405F6002030A0
:101ED0007504D30098307604D400C2278C31AC004E
:101EE0005308C2278C31AD00CE278C3120002C083E
:101EF000CE278C31ED27F30A81318E29ED278131F0
:101F00008E218C317C3020005105F500F0305205D7
:101F1000F60083307504D10009307604D200C22760
:101F20008C31AA005108C2278C31AB00CE278C31EE
:101F300020002A08CE278C31ED27F30A81318E2923
:101F4000ED2781318E218C317C3020005105F50048
:101F5000F0305205F60083307504D1000630760467
:101F6000D200C2278C31AA005108C2278C31AB00A5
:101F7000CE278C3120002A08CE278C31ED27F30A9A
:101F800081318E29F000F201700C0830F10DF0362D
:101F9000F20A7202031CC42F71080800F00024002A
:101FA000951370089100141CD32F11080800080025
:101FB0000930813129218C31813122218C31003A43
:101FC0000319DC2F81314F217108F6007008F500EC
:101FD0007608F4007508F30008000E30F000F101F7
:101FE000F201F20AF30108002000EC01EC0A0800FB
:101FF0002000EF01EF0A08002000E901E90A0800CB
:102000000034AE34033479340334463403341034AA
:102010000334DB340234A6340234733402343D34E6
:10202000023408340234D5340134A03401346A3423
:1020300001343534013402340134CD340034663493
:1020400000343334013400340234CC340234993453
:1020500003346434003484340334003401340234EF
:1020600003340F34083405341E3414341934003466
:10207000013453340134E53401345C340234C13466
:1020800002341A3403346B340334B7340334003469
:1020900004344934043495340434E63404343F348D
:1020A0000534A43405341B340634AD34063400340E
:1020B000003481340034E63400343634013477346B
:1020C0000134AD340134DB340134033402340034E0
:1020D000003481340034E63400343634013477344B
:0220E0000134C9
:103E00000034003400340034003400340034003412
:103F4000003400340034553400340034003400347C
:103F500000340034003400340034003400340034C1
:103F600000340034003400340034003400340034B1
:103F700000340034003400340034003400340034A1
:103F80000034003400340034003400340034003491
:103F90000034003400340034003400340034003481
:103FA0000034003400340034003400340034003471
:103FB0000034003400340034003400340034003461
:103FC0000034003400340034003400340034003451
:103FD0000034003400340034003400340034003441
:103FE0000034003400340034003400340034003431
:103FF0000034003400340034003400340034003421
:020000040001F9
:04000E00ECFFFFF311
:00000001FF
