S011000000486578766965772056312E3037D2
S22400000018040020BF010000CB010000CD2600000000000000000000000000000000000020
S224000020000000000000000000000000CF0100000000000000000000D1010000D301000045
S224000040D5010000D5010000D5010000D5010000D5010000D5010000D5010000D5010000EB
S224000060D5010000D5010000D5010000D5010000D5010000D5010000D5010000D5010000CB
S224000080D50100004D200000652000007D200000D5010000D5010000512F00006D2F00002E
S2240000A0D5010000D5010000D5010000D5010000D5010000D5010000C52A0000A52B000078
S2240000C000F002F800F032F80CA030C8083824182D18A246671EAB4654465D46AC4201D157
S2240000E000F024F87E460F3E0FCCB6460126334200D0FB1AA246AB4633431847787B0000E5
S224000100987B00000023002400250026103A01D378C1FBD8520700D330C100D50B607047F7
S2240001201FB500F081F81FBD10B510BD00F0E8F81146FFF7F5FF06F0C7FE00F000F903B4A3
S224000140FFF7F2FF03BC00F009F9000030B40C490C684A6823681068C0181060241D121DE8
S2240001608C4207D28A4208D20C604A6030BC4000400870470C00DC3CF6E70A00DC3AF3E7F1
S224000180B0FFFF1F70B505460C46164602E00FCC0FC5103E102EFAD2082E02D303CC03C5E4
S2240001A0083E042E07D301CC01C5361F03E021782970641C6D1C761EF9D270BD704709484E
S2240001C080470948804709480047FEE7FEE7FEE7FEE7FEE7FEE7000005480649044A064B0A
S2240001E07047000059470000BD010000C10000001800002018040020180000200B4A30B53E
S22400020011460B4C60310B46DC3B0CC1372106E0020C8D0012185A51064A504300190A466B
S224000220491E002AF4DC30BD0120E7E750FFFF1FE119D666CD0D0100F8B5042A2CD383079A
S22400024012D00B78491C0370401C521E83070BD00B78491C0370401C521E830704D00B7823
S224000260491C0370401C521E8B079B0F05D0C91ADF002023DE1B08C90AE0FFF783FFF8BDDE
S2240002801D4608C9FD401C46B4402C4310C0121F042AF5D2F308C91A521EF0D40B78491C33
S2240002A00370401C521EEAD40B78491C0370401C012AE4D409780170F8BD01E004C0091F2E
S2240002C00429FBD28B0701D50280801CC90700D00270704700290BD0C30702D00270401C62
S2240002E0491E022904D3830702D50280801C891EE3E70022EEE70022DFE77047704770479C
S224000300754600F025F8AE46050069465346C008C000854618B020B5FFF75EFF60BC002749
S2240003204908B6460026C0C5C0C5C0C5C0C5C0C5C0C5C0C5C0C5403D49008D46704710B508
S2240003400446C046C0462046FFF7F9FE10BD000000487047B8FFFF1F704700000149182015
S224000360ABBEFEE72600020070B58C180578401C6B075B0F01D10378401C2A1106D102784F
S224000380401C03E00678401C0E70491C5B1EF9D12B0705D40023521E0DD40B70491CFAE7D9
S2240003A00378401CCB1A921C03E01D780D70491C5B1C521EF9D5A142D8D3002070BD30B5FF
S2240003C004460D462946204600F0A7F900BF00BF2068802108400028F9D000BF206980B2BC
S2240003E030BD8268920892008B079B0F1343836070477047704770477047704770477047C8
S224000400FFFFFFFFFFFFFFFFFFFFFFFFFFFFFEFE002203098B422CD3030A8B4211D300230E
S2240004209C464EE003460B433CD4002243088B4231D303098B421CD3030A8B4201D3944672
S2240004403FE0C3098B4201D3CB01C01A524183098B4201D38B01C01A524143098B4201D3BF
S2240004604B01C01A524103098B4201D30B01C01A5241C3088B4201D3CB00C01A5241830869
S2240004808B4201D38B00C01A524143088B4201D34B00C01A5241411A00D2014652411046BD
S2240004A070475DE0CA0F00D04942031000D34042534000229C4603098B422DD3030A8B425D
S2240004C012D3FC22890112BA030A8B420CD3890192118B4208D3890192118B4204D38901D5
S2240004E03AD0921100E08909C3098B4201D3CB01C01A524183098B4201D38B01C01A52410C
S22400050043098B4201D34B01C01A524103098B4201D30B01C01A5241C3088B4201D3CB00D3
S224000520C01A524183088B4201D38B00C01A5241D9D243088B4201D34B00C01A5241411A7B
S22400054000D20146634652415B10104601D34042002B00D54942704763465B1000D340427F
S22400056001B50020C046C04602BD000030B504460D466248844206D1614840690121490748
S22400058008435F49486129792046FFF72AFF6979204600F0B7F8A979204600F0CEF8E9790C
S2240005A0204600F0C2F86888A06128780007C00F002806D000BF606820210843606000BF2F
S2240005C000BF2878C006C00F002806D000BF606810210843606000BF00BF28788007C00FED
S2240005E0002806D000BF206820210843206000BF00BF2888C005C00F002806D000BFE068DE
S22400060020210843E06000BF00BF28780006C00F002806D000BFE06840210843E06000BF66
S22400062000BF28784007C00F002806D000BF606840210843606000BF00BF2878C007C00F9B
S224000640002806D000BF206840210843206000BF00BF28784006C00F002806D000BFA0682C
S22400066010210843A06000BF00BF28788006C00F002806D000BFA06880210843A06000BF16
S22400068000BF28888005C00F002807D000BFE068FF2101310843E06000BF07E000BFE06802
S2240006A0FF2101318843E06000BF00BF28884005C00F002806D000BFE06902210843E061E1
S2240006C000BF06E000BFE06902218843E06100BF00BF28880005C00F002806D000BFE06931
S2240006E001210843E06100BF06E000BFE06940084000E06100BF00BF30BD000000B0034073
S2240007000080044010B5826860241346A3431A464B0123401343836010BD02685209520171
S224000720CB06DB0E134303607047C268D208D2004B075B0F1343C360704710B582680C24E9
S2240007401346A3431A468B0023401343836010BD10B501F049FD01200249087006F094FB9C
S22400076010BD00003AF1FF1F014800787047000040F1FF1F014908707047000040F1FF1FCF
S224000780034A1278012A02D1002800D100BF70479CF1FF1F10B5272001F0BCFD10BD10B51D
S2240007A00021272001F0D6FD0021092001F0D2FD00F003F8FFF7EEFF10BD10B5092001F084
S2240007C0A9FD10BD18B500240A20009014480378144802881A21144800F02CF804461348E9
S2240007E00078844211D112480078032804DC10480078401C0E4908700D48007803280BD128
S2240008000A4800780649087006E009480078002802D00020064908700448047018BD00001D
S22400082022F1FF1F1CF1FF1F1C71000024F1FF1F23F1FF1FFCB50446079D009320889042B9
S22400084002DB0020009055E0480000194038C08F401B90420ADC480000194038C08F401915
S224000860904203DD481EC0B2009043E0208890423FDC480000194038C08F904239DB00266D
S2240008800CE07000205A904206DC700000194088904201DB01960E46701CC6B2481EB04283
S2240008A0EFDC019EB34202D0701C834212D17000205A4019904201DD00961BE070000019C1
S2240008C04088AF18B84203DA701CC0B2009011E000930FE07000001940887700E75BC019C9
S2240008E05700B84201DD009604E0701CC0B2009000E000930098FCBD10B5012009498871C7
S22400090008710020C87132204871592040024880084600884008400008800348FFF726FE27
S22400092010BD0000ACF0FF1F00B0034010B5072001F0F0FC0021072001F00CFD10BD10B59B
S22400094003F06CFCFFF72BFFFFF7F0FF03F0ECFC02F082F902F080F802F07FF901F068F9C4
S22400096001F0B6F810BD10B501F026F901F0DAF802F09CF910BD0000012001490870704780
S22400098049F1FF1F704770B505460C46FF200330005D102801D1002070BD23E0FF20013028
S2240009A0005D00010119284600F050FA002817D0FF200130005D401CC1B2FF2001300155E1
S2240009C0005D102803DB0021FF2001300155FF200330005D401CC1B2FF200330015501E0D1
S2240009E00120D9E7FF200130015D401C005D8142D4D1FF200330005D0028CFD00120CBE7F9
S224000A0070474178802211434170704710B504460A46002A29D0204600F037F813490B5C39
S224000A201348C05C02210840002806D01048C05CFD2108400E49C85417E00E48007910703E
S224000A400C48407950700B48807990700948C079D0700848007A10710648407A507105484D
S224000A60807A90710348C07AD07110BD547200004AF1FF1FB0F2FF1F01460148007B704742
S224000A80B0F2FF1F014600207047014670470000F8B504460D460026CE4840690121C90358
S224000AA00843CC4948612046FFF7ABFF2878C006C00F002803D06078402108436070204638
S224000AC000F0A6F900BF204600F0BBF90028FAD000BFE87A2074A97A6174697AA174297A7F
S224000AE0E17400BF00BFE87C2075A97C6175697CA175297CE17500BF00BFE87B2076A97B99
S224000B006176697BA176297BE17600BF00BFE87D2077A97D6177697DA177297DE17700BFD0
S224000B202046698800916A4611888901C02211406A4612881206920E114381706A46118832
S224000B40090B12881205520F120170231A401143C1706A461188C905C90F002904D0C178C0
S224000B6080221143C17003E0C17880229143C17000BF28780006C00F002806D000BF6078BD
S224000B8010210843607000BF06E000BF607810218843607000BF00BF28788006C00F002861
S224000BA006D000BF607820210843607000BF06E000BF607820218843607000BF00BF287831
S224000BC0C007C00F002806D000BF207820210843207000BF06E000BF207820218843207071
S224000BE000BF00BF28784006C00F002806D000BF607804210843607000BF06E000BF6078AC
S224000C0004218843607000BF00BF2888C00B002806D000BF607808210843607000BF06E098
S224000C2000BF607808218843607000BF00BF2879010130221140E17200BF00BF20784008DF
S224000C404000207000BF00BF204600F0FAF80028FAD12888C004C00F002806D000BF60792D
S224000C6002210843607100BF06E000BF607902218843607100BF00BF28888004C00F00288B
S224000C8009D000BF607901210843607100BF1E2002F05EF80CE000BF60794008400060717E
S224000CA000BF1E20012181404B4A116000BF00BF28884005C00F002807D000BF607930211F
S224000CC00843607100BF012606E000BF607930218843607100BF00BF28888005C00F0028F8
S224000CE007D000BF607940210843607100BF012606E000BF607940218843607100BF00BF24
S224000D0028788007C00F002806D000BF207808210843207000BF06E000BF2078082188438F
S224000D20207000BF00BF28884004C00F002807D000BFE07907210843E07100BF012606E036
S224000D4000BFE079C008C000E07100BF00BF28880005C00F002807D000BF60790C2108438C
S224000D60607100BF012606E000BF60790C218843607100BF00BF2888C005C00F002804D0B2
S224000D80204600F082FB012606E000BF607980218843607100BF00BF28784007C00F00283D
S224000DA003D0204600F06CFB06E000BF207804218843207000BF00BF002E02D01F2001F033
S224000DC0C7FF28780007C00F002802D02046FFF718FEF8BD0080044080E100E00120094939
S224000DE0087000204870072088700220C87000200871022048710020034908700349087009
S224000E007047000042F1FF1F49F1FF1F48F1FF1F0178012211430170704710B50446202CA3
S224000E200CD2022C03D1204600F010FB06E0002C01D0012C02D1204600F0EEF810BD7047C9
S224000E40704701464878C007C00F704770B504460E4600BF0D4880794007400F0546002DA4
S224000E6000D170BD00BF6807400FA07200BF0E22314620463030FFF7DFF900BFA17A4807BD
S224000E80400F00BFA07100BF0120EAE70040024070473CB5024600BF1079C007C00F002805
S224000EA07DD000BF2120805C019000BF2320845C0094684600790007C00FC873684600789F
S224000EC0C007C00F8873C87B002837D000BF2024A45C6405FF256D052C4020460C68AC43D3
S224000EE004430C600724A4040868A0436C4624796409A4040725AD042C4020430860EC10A0
S224000F000868A0436C462479E403ED102C402043086000BF2224A45CE401FF25ED012C40A7
S224000F2020460C68AC4304430C600868C009C0016C46247864082043086013E000BF2024BB
S224000F40A45CE400FF25ED002C4020460C68AC4304430C600868C008C0006C4624796409FB
S224000F60204308602C20805C0007000F0873002306E010462430C45C081DC454581CC3B2EF
S224000F80087B9842F5DC00BF3E20805C087400BF3F20805C487400BF1079012400E004E0C2
S224000FA02043107100BF01203CBD0020FCE7000010B504461448007814490978884203D10D
S224000FC01348007800281BD10F4800780E4A1278521C0D4B1A70142250430E4A8118142234
S224000FE02046FFF7CFF808480078102802DB00200549087006480078401C0549087001E03D
S224001000002010BD0120FCE7D5F0FF1FD4F0FF1FD6F0FF1FC8F3FF1FF0B585B006461C20F6
S22400102004905448007869287ED0962802D0C3287BD192E0022E79D23046FFF723FD0028BC
S22400104074D1FF2E05D13146FF2000F0D3FA044601E03046C4B2022C7DD2A00046490F58C6
S224001060002F02D02046B847049004981C2871D13046FFF701FD05464048015DA94269DC84
S224001080082D67D8FFF770FB03903D48005D0821084008280FD1E0003A4A81183046FFF717
S2240010A0B5FC39480555A00038490F58002F01D02046B84732E03648005DA84220DC01A935
S2240010C03046FFF7A3FC002707E001A8C05DE1002C4A8918C855781CC7B22D48005DB8423E
S2240010E0F3DC2B48005D28490855A0002749085800900098002802D02046009988470DE031
S2240011002348005DA84209DDA00022490F581E480555002F01D02046B84700BF1E48005D19
S22400112002210840002803E018E018E014E012E006D01948005D392108431749085505E083
S2240011401548005D3A210843134908550398FFF711FB00BF00BF00BF09E000BF07E00F48B1
S224001160007804490870102001F0BEFD00BF00BF05B0F0BD4FF1FF1F3C720000F171000003
S224001180F371000038F6FF1F50F1FF1F44720000EE7100004C72000055F1FF1F567A000034
S2240011A0FEB507460D4614460026FF200330005D002806D0FF200330005DC00069688842A0
S2240011C001D20020FEBDFF200230005D102803D10021FF20023001554A20405D00283CD09F
S2240011E068460079E02188432968C902490F4901E0221140014301916846007910218843AD
S2240012004118019168460079082188434118019168460079C008C00029688903490F014370
S224001220019168460078FE21884329684900FE221140084300904920405D002807D069462D
S224001240087840084000401C00906E6819E06946087840084000009013E068460079E02164
S224001260884329684901E022114001430191684600791021884301906846007908218843CB
S22400128001907CE02868C000010EFF200230005D0001215468460179FF200230005D000102
S2240012A0001941704A20405D002811D028884004010EFF200230005D0001001981706846E5
S2240012C00178FF200230005D00010019C17007E028884005010EFF200230005D0001215488
S2240012E0304608306968814214D32A4608329119FF220232125D12011219101D0822FEF71E
S2240013009BFF0821FF200230005D000100190173083616E06B689A1B2B4608339919FF238D
S22400132002331B5D1B011B19181DFEF785FF2879801BC1B2FF200230005D00010019017312
S2240013406E684820415DFF200230005D000100194173FF200330005D401EC1B2FF2003305E
S2240013600155401E005D401CC1B2FF2002300155005D102803D10021FF20023001556868E0
S224001380B04200D97EE701201CE7704710B502460020002908D000BF04E00C5C034B1C5446
S2240013A0431CD8B20828F8DB10BD000010F5FF1F002902D0012902D100E001E000E000BFF4
S2240013C000BF7047072900D000BF7047014A51607047000008F5FF1F002902D0082902D14F
S2240013E000E001E000E000BF00BF7047704770477047000010B500210D48817241720D48B7
S2240014000B494039086008204860802108480172094A014640390948FFF7C2FE0448403880
S22400142000680449884202D10220FFF7F6FC10BD48F5FF1FCE070000C4F2FF1F00400240F8
S22400144010B50446FFF7D6FF10BD000010B504460848007896280CD1022C0AD3032C08D25A
S224001460A01EC4B20020044908550449085D00F0D9F910BD4FF1FF1F52F1FF1F53F1FF1F07
S224001480017804221143017070474179802211434171704770B5FFF767F90546002407E042
S2240014A04948005D7421084047490855601CC4B2032CF5D32846FFF75DF944480078692837
S2240014C006D0962802D0C32803D100E000BF08E007E03F4800783D490870102001F004FC56
S2240014E000BF00BF002008E000213A4A11543A4A11543A4A1154411CC8B20028F4D002259B
S224001500FF26FFF77DFA002D41DD00241FE008212046FFF761FF32492046FFF769FF002181
S2240015202046FFF745FF00212046FFF75FFF60002C4A115A2046FFF75AFFFF21013120467D
S224001540FFF740FF2046FFF7A3FC601CC4B2022CDDD3FF2E1BD01021FF20FFF73DFF0021CB
S224001560FF20FFF745FF0021FF20FFF721FF0021FF20FFF73BFF0021FF20FFF738FFFF21BA
S2240015800131FF20FFF71EFFFF20FFF781FC022410E000212046FFF71FFF00212046FFF722
S2240015A007FF07212046FFF70DFF2046FFF770FC601CC4B2032CECD30020FFF7E6FEFFF7F8
S2240015C0DBF9FFF73DFC70BD55F1FF1F4FF1FF1F567A000052F1FF1F53F1FF1F54F1FF1F1E
S2240015E0FF070000E871000010B5FFF709FAFFF726FC10BDF8B505460E463046FFF745FAED
S22400160007462C4607E060000549085AB84200D103E0601CC4B2022CF5D300BF2046F8BD9F
S224001620E8710000F8B504460F46022C1CD21148005D08210840082802D10F48065D01E01F
S2240016400E48065DFFF790F80090002506E0E0000B494018405D7855681CC5B2B542F6DBFA
S2240016600098FFF787F803E039462046FFF7CEF90020F8BDF371000050F1FF1FEE710000DC
S22400168038F6FF1F02460020022A01D3132006E0002901D1192002E0014B9B5C0B707047ED
S2240016A050F1FF1F69200149087070474FF1FF1F10B500F023F910BD70B5044600252948C3
S2240016C00078692834D0962802D0C3283ED116E0692C02D0C32C0ED107E0FFF785FF214879
S2240016E00470204600F042F807E01E480470204600F03CF801E0122500BF00BF2FE0692C5C
S22400170002D0962C10D107E0FFF76EFF15480470204600F02BF809E0FFF7BCFE1148047055
S224001720204600F023F801E0122500BF00BF16E0962C07D1FFF7AEFE0A480470204600F04F
S22400174015F801E0122500BF00BF08E00648007804490870102001F0C7FA1B2500BF00BFCE
S224001760284670BD4FF1FF1F567A000010B50446962C01D103F0F4F82046FEF73AFE10BDB9
S22400178010B50446022C02D1002003F035F8022C02D1012003F030F82046FEF72BFE10BD66
S2240017A070B50446002513480078692814D0962802D0C32812D10EE0022C01D3032C01D3F7
S2240017C0132507E001200C490855A11EC8B2214600F052F80BE000BF112508E007480078A9
S2240017E004490870102001F07FFA1B2500BF00BF284670BD4FF1FF1F52F1FF1F567A00009D
S22400180030B502460B46002106E0585CD400044D64196054481CC1B20829F6D3002030BD56
S22400182038F6FF1F10B50446022C02D1002003F005F8022C02D1012003F000F82046FEF7CF
S224001840DAFD10BD10B5044609480078962803D007480078C32809D1022C07D3032C05D2DC
S224001860A01EC4B20349085DFFF78AFF10BD00004FF1FF1F53F1FF1F70B504460D46284642
S22400188000F036F86A00144B995AA21CD0B2FFF7AEFD124A515DA21CD0B2FFF797FDA11CF7
S2240018A0C8B20021FFF7A2FDFEF75EFF0646EA000B4BD118A21CD0B2FFF768FD3046FEF726
S2240018C059FF0848405D0849085508480555A11CC8B2FFF7B5FD70BDE8710000EE710000A2
S2240018E038F6FF1F3472000054F1FF1F53F1FF1F10B504462046FEF77FFD10BD70B52248EA
S2240019000078692834D0962802D0C32831D100E000BF002429E01D48005D012823D11C4829
S224001920005D012816D11B49085D00F039F805461E2D04D1A11CC8B2FFF724F813E0A11CE7
S224001940C8B2FFF77FFF1348005D1349085C1049085508E00E48005D012804DD0C48005D10
S224001960401E0B490855601CC4B2002CD3D008E007E00A48007804490870102001F0B4F966
S22400198000BF00BF70BD00004FF1FF1F52F1FF1F54F1FF1F53F1FF1F34720000567A00009D
S2240019A001460020022900D11E20022900D11E207047000000B587B0182101A8FEF79BFC36
S2240019C01E2001F09DF91F2001F09AF93C4801F055F80021084600F0BDFC002000F09AFCFA
S2240019E06846C088810889006846C180C088FC218843011D6846C180C088FF210131884349
S224001A0001466846C180C0880F21090388430321490341186846C180C088072149028843FE
S224001A2041186846C1802748039027480490274805902648E03006900121684601728088F1
S224001A400821884341186846818080881021884301466846818080880121490388434118F1
S224001A6068468180808802218843811C68468180808801210903884341186846818080885F
S224001A8001214902884341186846818080880121C903884341186846818001A90848FEF749
S224001AA0F7FF074840790C210843054948711E2001F044F91F2001F041F907B000BD00005A
S224001AC000400240C0F8E0FB4054401C1F001F0000200949087048708870C87008714871BA
S224001AE08871C8710549087048708870C870087148718871C8717047E6F0FF1FEEF0FF1FF6
S224001B0010B50446002003F0FFF910BD7047024602201080402070470246022010804020B7
S224001B207047000010B501211A2000F013FC01213E2000F00FFC01211B2000F00BFC0121D8
S224001B403F2000F007FC00240EE00020084908550849085508490855084908550849085596
S224001B6008490855601CC4B2022CEED310BD00000AF1FF1FF6F0FF1F08F1FF1FF8F0FF1FCA
S224001B80FAF0FF1F0CF1FF1F02464020704702460220108040207047024602201080402053
S224001BA0704710B5162001F0ABF81E2001F0A8F81F2001F0A5F810BD10B500F011F800248F
S224001BC006E000200449085504490855601CC4B20A2CF6DB10BD000058F5FF1F62F5FF1F00
S224001BE010B5002406E00549085D022100F0B2FB601CC4B20A2CF6DB10BD0000DCF0FF1FEE
S224001C00024602201080402070470246022010804020704710B5162001F090F81E2001F0FA
S224001C208DF81F2001F08AF810BD02464020704710B5002038490968086044213748FEF724
S224001C405AFB14213648FEF756FB36480021016041608160C1600020304988764876C876FB
S224001C60C87388730874487488724872C87588750876C874887408754875487708778877D6
S224001C80C8770873C8724873002124482030C17081700171417001700020204908720021D9
S224001CA01E48203041718171C1710172417281720421C1720021017341738173C17301743C
S224001CC041748174C174017541758175002013490860002111482030C175017641768176F5
S224001CE000200E49486000210C482030C176017741778177C1772030017041708170C170D0
S224001D0000200849087048708870C8700871487188718860087310BD1871000078F5FF1F7E
S224001D20BCF5FF1FD0F5FF1F00B503461846083001F05AF8586800F057FD17480078042115
S224001D4088431549087008460078C021884380301149087008464078102188430E494870D8
S224001D6000BF0D4800790C21084080080228F8D100BF09480079102108400028F9D106489F
S224001D804078E02188430449487008460079802108430149087100BD0040064000B50346FE
S224001DA01846083001F020F8586800F01DFD10480078042188430E49087000BF0C4800799A
S224001DC0102108400028F9D100BF09480079402108400028F9D006484078E0218843044951
S224001DE0487008460079802108430149087100BD0040064000B503461846083000F0F4FFF6
S224001E00586800F0F1FC10480078042188430E49087000BF0C480079102108400028F9D19A
S224001E2000BF09480079402108400028F9D006484078E0218843044948700846007980213B
S224001E4008430149087100BD0040064010B5034600249807800F002802D01E4C204610BD35
S224001E6030201D494871002048700A2048721802000E0872012048700B721804000E487256
S224001E80012000F075F81448407920210840002802D01048C01D04430F4840791021084022
S224001EA0002802D00B480F3004430B4840798007800F002802D00748103004430648407951
S224001EC08007800F002802D00248113004432046C5E70000013000000000024070B5064625
S224001EE0002420493046FEF793FA401EC5B21E48407980210840002803D11C48044320466E
S224001F0070BD1948C0784021084000281CD11648C0788021084000280CD01348C07880069C
S224001F20800EA906890E884204D01048001D04432046E5E70C48C07880098001A906890E60
S224001F4008430949C8700AE00748C0788006800EA906890E884202D00448001D044320462A
S224001F60CEE7000040420F0000000240143000000949C968012212041143074AD16080215D
S224001F80064A5171002806D000BF04494979802211400029F9D07047003000F00000024060
S224001FA030B503460C4600259807800F002802D0244D284630BD3020234948710020487036
S224001FC0062048721802000E0872012048700B721804000E4872022048702004000E48727A
S224001FE00C7203204870200E48722002000E08720120FFF7BDFF1448407920210840002858
S22400200002D01048C01D05430F48407910210840002802D00B480F3005430B48407980077C
S224002020800F002802D0074810300543064840798007800F002802D00248113005432846E3
S224002040B8E70000013000000000024010B504480068002802D002490868804710BD0000A7
S224002060A4F2FF1F10B504484068002802D002494868804710BD0000A4F2FF1F10B50448A0
S2240020808068002802D002498868804710BD0000A4F2FF1F30B50468E0252C402346CC00DF
S2240020A018252C4055076D0F2C432343036030BDFFB50C461546324B984207D10222314B45
S2240020C05B69202633432F4E736111E02E4B984207D102222B4B5B6940263343294E736189
S2240020E006E00622274B5B6980263343254E736100230360039B8360022C04D10368202679
S224002100334303600BE0032C09D1436D0526334343651E4B436603682026B3430360012DAA
S22400212013D100210EE02823CE0007460C37BB5164234B437D26F6009B19CE00F6197360E0
S2240021404B1CD9B29142EEDB18E0002D16D100210EE02423CE0007460C37BB5164234B430B
S2240021607D26F6009B19CE00F61973604B1CD9B29142EEDB436D052633434365FFBD00001A
S2240021800080034000800440009003403333330070B58568ACB21346A34201DD651EABB2DB
S2240021A0CD0006460C36AD196B6070BD10B50B4800690B4908430949086164230122114625
S2240021C00848FFF775FF022201210648FFF762FF002211460348FFF7DBFF10BD0080044030
S2240021E0FDFF000000A0034010B500200E490870FF200E4908700E49087000200D4908709C
S2240022000D490870FFF74EFAFEF7E8FD02F0A8FB03F048FC01F068FC9620FFF74DFA962009
S224002220FFF74AFA10BD00005BF1FF1F5CF1FF1F58F1FF1F59F1FF1F5AF1FF1F10B5144864
S2240022400078012801D100F029F8FFF731FA02F0B3FB10480078092805D300200D4908706D
S22400226003F074FC04E00B480078401C0949087009480078042805D300200749087001F07B
S22400228077FC04E004480078401C0349087010BD5BF1FF1F59F1FF1F5AF1FF1F7CB50020A5
S2240022A01949087001AA69461848007802F040FB0446002C27D1002301226846019903F0F1
S2240022C077FE0546012D12D168460088002819D0684601880D480078019A03F08FF804467E
S2240022E0002C0FD10948007803F022F80AE0782D08D106480078064908700121044800781C
S22400230002F0C4FE00BF7CBD5BF1FF1F5CF1FF1F58F1FF1F202804DA012181400C4A916080
S22400232014E0402808DA01462039C8B201218140074A4032916009E0482807DA01464039AF
S224002340C8B201218140024A803291607047000000F00F40202861DA002906D001291AD0A0
S22400236002292ED0032958D141E0C64A5269012383401A43C34B5A611A469269012383409F
S2240023801A43C04B9A61C04A9268012383409A43BD4B9A6041E0BB4A5269012383409A4366
S2240023A0B84B5A611A469269012383409A43B54B9A61B54A9268012383409A43B24B9A608C
S2240023C02BE0B04A5269012383409A43AD4B5A611A469269012383409A43AA4B9A61AA4ABE
S2240023E09268012383401A43A74B9A6015E0A54A5269012383401A43A24B5A611A469269C8
S224002400012383401A439F4B9A619F4A9268012383409A439C4B9A6000BFE3E0402871DAD1
S2240024200246203AD0B2002906D001291DD0022934D0032964D14AE0924A40325269012376
S22400244083401A438F4B40335A611A469269012383401A438B4B40339A618B4AD268012339
S22400246083409A43884BDA604AE0864A40325269012383409A43834B40335A611A46926968
S224002480012383409A437F4B40339A617E4AD268012383409A437C4BDA6031E0794A40322E
S2240024A05269012383409A43764B40335A611A469269012383409A43724B40339A61724AA3
S2240024C0D268012383401A436F4BDA6018E06D4A40325269012383401A436A4B40335A6182
S2240024E01A469269012383401A43664B40339A61654AD268012383409A43634BDA6000BFC5
S22400250070E0FFE70246403AD0B2002906D001291DD0022934D0032963D149E0594A803219
S2240025205269012383401A43564B80335A611A469269012383401A43524B80339A61524A02
S2240025401269012383409A434F4B1A6149E04D4A80325269012383409A434A4B80335A612E
S2240025601A469269012383409A43464B80339A61454A1269012383409A43434B1A6130E011
S224002580404A803253690122824093433D4A8032536193690122824093433A4A80329361B5
S2240025A0394A1269012383401A43374B1A6118E0344A80325269012383401A43314B803381
S2240025C05A611A469269012383401A432D4B80339A612D4A1269012383409A432A4B1A61D0
S2240025E000BF00BF03294CD120282CD008DC0C280DD00D2812D0182817D019283FD11BE04C
S224002600212827D038282CD0392838D130E01E4A526901231A431C4B5A6131E01A4A5269A9
S22400262002231A43184B5A612AE0174A526904231A43154B5A6123E0134A526908231A438D
S224002640114B5A611CE0104A526910231A430E4B5A6115E00C4A526920231A430A4B5A61F3
S2240026600EE0094A526940231A43074B5A6107E0054A526980231A43034B5A6100E000BFF3
S22400268000BF704700F00F4000900440202804DA012181400C4A516014E0402808DA014617
S2240026A02039C8B201218140074A4032516009E0482807DA01464039C8B201218140024A48
S2240026C0803251607047000000F00F407047000002460120014B187040207047C8F0FF1FBB
S2240026E010B50246204801805000204B185A1E4B1B8898421ADB50001D4B185A401C5300FE
S2240027001B4CE052002053001A4CE0525000184B185A5300184CE35A984203DB0020174BBD
S22400272018701DE00220154B187019E05000114B185A401C53000F4CE052002053000C4CE7
S224002740E05250000B4B185A53000D4CE35A984203DB0420094B187002E00220074B1870AB
S2240027600648007810BD00002CF1FF1F8E710000EAF5FF1FE0F5FF1FAC7100002EF1FF1F3D
S224002780B671000010B50446207802280DD1207A1021884310302072207A20218843203000
S2240027A020722046FFF7FAFA1BE02078032807D1207A1021884320722046FFF71BFB10E012
S2240027C02078052807D1207A1021884320722046FFF7AAFA05E003484078E0218843014931
S2240027E0487010BD00400640214A811A904215D00ADC202832D07D214901411A16D07D2214
S2240028005201891A31D108E01A4A8918002915D07D225201891A28D118E000BF164909789B
S224002820382291431831144A11701FE012490978382291431031104A117017E00E49097849
S2240028403822914320310C4A11700FE00A490978382291432031084A117007E00649097851
S22400286038229143044A117000E000BF00BF70471027000090E8FFFF0040064010B5022027
S224002880114908700846007A04218843001D0E4908720846007A40084000401C0872084647
S2240028A0007A102188431030074908720846007A082188430830044908727D20C0014860D2
S2240028C00846FFF75FFF10BD98F2FF1F70B5054600242348058000202249087000BF3BE07B
S2240028E000206100204A50526100204A50522049085560001F49085A1949098888420DDB44
S22400290060001D49085A16490988884206DC2946204600F027FA164908551BE06000154993
S224002920085A0F49098888420ADA29462046FFF7D7FE0F490855002061000B4A505209E0E3
S2240029402946204600F036F80949085500206100054A5052601CC4B2052CC1D370BD00007A
S2240029602CF1FF1F2EF1FF1FE0F5FF1FEAF5FF1F26F1FF1F8E7100008471000010B50021DB
S2240029803120FFF7E7FC3120FFF780FE10BD000000B5FDF717FF0448007840000349085A05
S2240029A00349088000BD000022F1FF1F507100001EF1FF1F10B50246204801805000204BB1
S2240029C0185A1E4B1B8898421ADC50001D4B185A401C53001B4CE052002053001A4CE05227
S2240029E05000184B185A5300184CE35A984203DB0020174B18701DE00120154B187019E0F8
S224002A005000114B185A401C53000F4CE052002053000C4CE05250000B4B185A53000D4C96
S224002A20E35A984203DB0320094B187002E00120074B18700648007810BD00002CF1FF1FF2
S224002A4084710000EAF5FF1FE0F5FF1F987100002EF1FF1FA271000010B500210820FFF72F
S224002A6079FC0820FFF756FC00F001F810BD10B50121022001F096FD10BD000010B504464D
S224002A8010210A48817000214170017010200849087000200749087007490870074800F092
S224002AA075F8074800F078F810BD0000C4F3FF1FD6F0FF1FD4F0FF1FD5F0FF1F112B00006E
S224002AC0D52B000010B500240E480068002802D00C49086880470C48FEF76AFA0A4800685D
S224002AE00A49884203D100242046FEF796F906480068FF210131884203D101242046FEF7AC
S224002B008CF910BDCCF0FF1FB0F2FF1FC607000010B519480068401C1749086000BF174827
S224002B200079C007C00F002825D01548007800281AD014480078134A1278521C114B1A706E
S224002B4014225043104A81180C48FEF7A2F90D480078102802DB00200A490870084800783B
S224002B60401E0749087006E00448017901221143017100BF00BF10BDD8F0FF1F00400240E2
S224002B80D6F0FF1FD4F0FF1FC8F3FF1F0149086070470000CCF0FF1F0149086070470000E5
S224002BA0D0F0FF1F10B508480068002802D0064908688047054800680549884202D1022073
S224002BC0FEF72BF910BD0000D0F0FF1F08F5FF1FCE07000010B500BF1D480079022108406F
S224002BE0002806D01A48017902221143017100BF00BF00BF1648007980210840002806D011
S224002C001348017980221143017100BF00BF00BF0F4800794021084000280BD00C480179EB
S224002C2040221143017100BF00BF007900BF0848807B00BF07490648FDF7A5FE002806D173
S224002C400348C179C908C900C17100BF00BF10BD00400240C4F2FF1F704710B500210D20B3
S224002C60FFF778FB00210620FFF774FB00211920FFF770FB00211820FFF76CFB0021312057
S224002C80FFF768FB00F001F810BD10B50D20FFF741FB0620FFF73EFB1920FFF73BFB18200A
S224002CA0FFF738FB3120FFF735FB10BD10B500213020FFF74FFB10BD10B5FFF7DFFD01F0D7
S224002CC02DFD04F075F8FFF759FEFFF76FFAFDF713FE01F0E9FCFEF76DFE0248FFF7FEF847
S224002CE010BD0000002D310170470000C206D20E01219140014A11607047000080E100E09D
S224002D00C206D20E01219140014A11607047000080E100E0C206D20E01219140014A116008
S224002D207047000000E100E0C206D20E01219140014A11607047000000E100E0C206D20E9F
S224002D4001219140014A11607047000000E100E0C206D20E01219140014A11607047000039
S224002D6000E100E010B50246194801805000194B185A174B1B88984210DB5000164B185A8B
S224002D80134B1B88984209DC0020144B18705300134CE0525300134CE05215E050000E4B01
S224002DA0185A0B4B1B88984207DD01200B4B1870002053000A4CE05206E00220074B187009
S224002DC000205300064CE0520448007810BD00002CF1FF1F8E710000847100002EF1FF1FFA
S224002DE0E0F5FF1FEAF5FF1F002102789207D20F002A01D0022211430278D207D20F002AF8
S224002E0001D00422114302781207D20F002A01D0202211430278D206D20F002A01D01022FD
S224002E20114302785207D20F002A01D080221143074A117002789206D20F002A06D000BF10
S224002E40034A1278D207D20F002AF9D0704700000050064010B5024616480180002053003D
S224002E60154CE0525000154B185A124B1B88984216DB5000124B185A401C5300104CE05271
S224002E8050002346185A53000E4CE35A984203DB00200D4B18700AE004200B4B187006E08E
S224002EA000205300064CE0520420074B18700648007810BD2CF1FF1FE0F5FF1FD471000012
S224002EC0EAF5FF1FDE7100002EF1FF1F19480088401C1849088018480088401C164908800B
S224002EE016480088401C1549088012480088C82805D100200F4908800120114908800E48A4
S224002F000088022805D100200B49088001200D4908800A48008864280AD1002007490880F0
S224002F2001200949088009480088401C074908807047000094F0FF1F90F0FF1F92F0FF1FED
S224002F4098F0FF1F96F0FF1F9AF0FF1F3EF1FF1F10B5002000F018F803480068002802D09B
S224002F6001490868804710BD88F0FF1F10B5012000F00AF803484068002802D001494868A9
S224002F80804710BD88F0FF1F054902018918C96801221143024A0301D218D1607047000046
S224002FA00071034070B504460D463448406902210843324948612878C007C00F002808D0A9
S224002FC000BF2F480068012108432D49086000BF00BF28788007C00F002808D100BF28485F
S224002FE00068022188432649086000BF00BF2046696800F04FF868788007C00F002815D070
S224003000002C03D01720FFF78FFE02E01620FFF78BFE00BF1B482101401880680221084369
S224003020184922018918886000BF02E01620FFF75DFE68784007C00F00280CD000BF114844
S224003040210140188068042108430E4922018918886000BF00BF6878C007C00F00280CD09E
S22400306000BF084821014018806801210843054922018918886000BF00BF70BD0080044004
S22400308000700340007103408200014B9950704788F0FF1F014A0301D150704700710340E5
S2240030A002464020002A0CD000290AD0054B1B78002B05D0034B1B780B710523138000E07F
S2240030C024207047B9F1FF1F024640200523138004230B71704730B503460A460024002A9F
S2240030E006D0002102E0555C2C19491C9942FAD3E0B2FF25281A30BDF8B50546002628467E
S22400310003F0A8FF06467927BF02002404E0385D0D490855601CC4B2202CF8DB0A48007937
S224003120401C0949087179208002FEF78FFE0648017879208002FEF733FF034801790348AD
S224003140FEF72EFF3046F8BD18F6FF1F04E4010010B5024600230120C1242404A24215D3DE
S2240031600B4CA24212D8C1242404A14204D3084CA14201D8002000E00120D409E401E4B2D5
S224003180002C01D1002002E0012000E0012010BD00FFC40000207047F0B50246002300246D
S2240031A040204D79534E356035462D682D028E79AD19504E356035462D682D02CE79AD1923
S2240031C04C4E356035462D682D020E7AAD19494E3560002A7AD00029FCD0474D2D88022628
S2240031E03540002D73D00D79442D7ED1434D2D78ED07ED0F002D78D00D79414E35705D1ED0
S224003200404E358035462D883F4EB5426BD101253E4E357035462D780D71374D2D883A4EC0
S224003220361F3540344E358035462D88364E083E3540314E358035462D88102635432E4E8B
S224003240358035462D88802635432B4E358035462D882F4E3540284E358035462D880601B4
S2240032603543254E358035462D8846013543224E35800125274E35700025274E357035469B
S2240032802D78ED00254E7559254E35600125254E3570184D2D68244E3678B600234FBD51C0
S2240032A0214D2D786D1C204E35704502114E356035462D684602AD1B0BD1032515807820CE
S2240032C001251B4E35701B4E358007E010E00EE00BE00525158004250D7100BF00BF0025DE
S2240032E0104E357004E0312002E0312000E03320F0BD000074F1FF1FCCF1FF1FBA7A0000EC
S224003300CFF1FF1F9EF1FF1FFFFF0000B6F1FF1FFFFD0000B7F1FF1FD8F1FF1F807A0000B7
S224003320D4F1FF1FA0F1FF1FF4F1FF1F50FAFF1F78F1FF1F7AF1FF1F10B502464020002AE4
S22400334015D0002913D00A4B1B88C4002340002B02D0084B18780AE0074B1B78002B05D0A9
S224003360054B1B780B710523138000E0242010BDCCF1FF1FCEF1FF1FB6F1FF1F7047000009
S22400338070B504460E464025002C70D0002E6ED03848007800281ED0812804D083282FD0F3
S2240033A0882861D146E02088082813DB324800884021084000280CD03146204600F048F97D
S2240033C00546402D03D102202C49087002E0242500E024254AE02848008840210840002806
S2240033E00CD03146204600F04BF80546402D03D102202249087002E0242500E0242535E0E2
S2240034002088342814D11C4800884021084000280CD01A480078012808D13146204600F07C
S224003420A7FE054602201549087002E0242500E013251BE02088062814D10F480088402166
S224003440084000280CD00D480078012808D13146204600F041FE054602200849087002E028
S224003460242500E0132501E0242500BF00BF284670BD0000C8F1FF1FCCF1FF1FD0F1FF1F12
S224003480F3B585B00C4600260020049003900025402002900598002808D0002CFCD0FFF7E9
S2240034A079FE0746552F02D192200290B7E0AA2F02D193200290B2E05A480068401C594986
S2240034C0086059480088FF2803DB00205649088004E055480088401C534908805148006880
S2240034E0002809D04F480068801EC0014F49096840184F49086003E04C4800684C4908602B
S2240035004C480068002807D0484800684949096840184949086003E045480068464908608F
S224003520002000900098002877D1012043490870414800683E490968401A41490860084626
S224003540006880280FD27F20049007E0FF210498801C21540498401E80B2049038490498B1
S22400356009688842F2D2314800683F210902884224D002261EE0F01C255C2D02B01C205C13
S22400358005432D02701C205C05432D02A05D054303F07AFB294626480068FEF701FDC0B2D9
S2240035A0019003F08DFB22480068001D20490860301D86B2822EDEDB0120019000201F4912
S2240035C008701A4800683F210902884201D1012001900198012806D11A480088802108437C
S2240035E01849088005E0174800881749084015490880144800888021084000280AD0022092
S2240036001249087008460078A07003210598018005E002E07220029001E031200290029871
S22400362007B0F0BD6CF1FF1FCAF1FF1F64F1FF1F94F1FF1F68F1FF1F98F1FF1FA0F1FF1FEA
S22400364088F1FF1FCCF1FF1F7FFF0000BCF1FF1FF0B5C3B006460C4640200190002E08D0FD
S224003660002CFCD0FFF796FD0746552F02D192200190B6E0AA2F02D193200190B1E06078EE
S2240036805949098888426ED157480088FF2803DB00205549088004E053480088401C524979
S2240036A00880A11C7F20FFF716FD8121095D884273D1A0780006E17809040843217909028E
S2240036C00843617908434949086008460068002850D1A0790006E17909040843217A090205
S2240036E00843617A08434249086008460068414988423CD1A07A0006E17A09040843217BDB
S22400370009020843617B08433B49086008460068C1210904884227D1A07B0006E17B09044A
S2240037200843217C09020843617C084333490860A07C0006E17C09040843217D090208436F
S224003740617D08432E490860A01C4290002507E069004298405AA90002AA5050681CC5B2F5
S224003760402DF5DB08E03AE07220019004E07220019001E072200190204801681E48006838
S224003780FFF7E6FC00900098002807D11D480088802108431B49088006E017E01948008899
S2240037A019490840174908801648008880210840002808D002201549087008460078A070D5
S2240037C0032030800DE0722001900AE00A200F49087008460078A0700320308001E0732000
S2240037E00190019843B0F0BDCAF1FF1FE0F1FF1FF0F1FF1F55AAAA55E4F1FF1FE8F1FF1F4B
S224003800ECF1FF1FCCF1FF1F7FFF0000BCF1FF1F30B5024600234020002A7DD00029FCD068
S224003820564C248802252C40002C76D04C78812C3ED14C78524D2C702C462478812C32D1F3
S224003840CC7824060D792D042C434D792D022C438D792C434B4D2C602C462468002C25D1B2
S224003860CC7924060D7A2D042C434D7A2D022C438D7A2C43444D2C60404C248840252C43A9
S2240038803E4D2C800124414D2C80414D2C703E4C2468822C08D10424148020244C700024E6
S2240038A08C708224CC7067E0702065E0702063E04C78002C5BD14C78314D2C702C4624782E
S2240038C0002C52D1CC7824060D792D042C434D792D022C438D792C432A4D2C60CC792406B5
S2240038E00D7A2D042C434D7A2D022C438D7A2C43254D2C60214C248840252C431F4D2C80BE
S2240039000124224D2C80224D2C701E4C24680125ED03AC4208D301E02DE02AE0194C246899
S2240039203D25ED02AC4205D9164C24683F252D02AC4221D1144C2468802C08D304241480D5
S22400394020244C7000248C708224CC7014E00424148020244C700C4C24882404240E8C7056
S224003960094C2478A41CCC7006E0702004E0702002E0312000E0332030BD0000CCF1FF1F3D
S224003980C8F1FF1F64F1FF1F68F1FF1FCAF1FF1FD0F1FF1F10B5034800F0E4FBFCF7E4FEF5
S2240039A010BD0000005500AA10B501200123174C237000232370164B1B68002B25D0144B1D
S2240039C01B6884021919134B1B78DB00124C1B195B688B4202D90E4B196013E00D4B1B782E
S2240039E05B1C0C4C237023461B780C4C2478A34207DA084B1B78DB00074CE358044C236088
S224003A0000E00220012A00D0032010BDA0F1FF1FD4F1FF1FD8F1FF1F807A0000B07A000017
S224003A2010B5012001232B4C2370002323702A4B1B68002B25D0284B1B6884021919274B7F
S224003A401B78DB00264C1B195B688B4202D9224B196013E0214B1B785B1C204C237023462B
S224003A601B78204C2478A34207DA1C4B1B78DB001B4CE358184C236000E00220012A00D085
S224003A800320154B1B680124A4021919134B1B78DB00134C1B195B688B4202D90E4B196082
S224003AA013E00E4B1B785B1C0C4C237023461B780C4C2478A34207DA084B1B78DB00084CF5
S224003AC0E358054C236000E00220012A00D0032010BD0000A0F1FF1FD4F1FF1FD8F1FF1F6C
S224003AE0A87A0000B27A000080201249088000201149087011490870114908701149087088
S224003B0011490870114908701149087004201149087003201049087002201049087000202D
S224003B200F4908600F4908700F4908800F49087070470000CCF1FF1FB6F1FF1FB9F1FF1F21
S224003B40BBF1FF1FBAF1FF1FB7F1FF1FB8F1FF1F9CF1FF1FDCF1FF1FD0F1FF1FD1F1FF1FEB
S224003B60C4F1FF1FA0F1FF1FDAF1FF1FC8F1FF1F10B5A4480088FF210131084000280FD024
S224003B80A1480078002806D19E4800889F4908409C49088004E09C480078401E9A490870BC
S224003BA09848008801210903084000286FD0984800889849884203D09748008888420CD1C7
S224003BC00320964908708F480088954908408D490880012001F080FD1EE092480078032879
S224003BE00BD18E490870874800888D49084085490880012001F070FD0EE08B4800780328E7
S224003C000AD1864908707F480088854908407D490880012001F060FD82480078022815D109
S224003C2081480078002811D101207F49087000207E49087008460078C0007D490858001DAB
S224003C407C4908600020C0437B4908807648007802281CD16B48008810210840002805D0C5
S224003C6068480088202108436649088002206B4908700120714908700020087061480088DA
S224003C80674908405F490880002001F025FD5D480088012189020840002875D0684800780D
S224003CA0012804D1FFF780FE6549087047E06448007803281BD1012060490870002008702B
S224003CC0504800880121490208434E49088072205C49087003205C4908704A4800885B493B
S224003CE0084048490880012001F0F6FC27E058480078012804D1FFF793FE554908701EE0A2
S224003D005348007803281AD101204C490870002008703C48008801214902084339490880E1
S224003D20722048490870032047490870354800884649084033490880012001F0CDFC404875
S224003D400078022828D142480078002824D12D480088042108432B4908803E480078822893
S224003D6017D12B4800882B4988420ED001203849087000203849087008460078C000374906
S224003D8008583749086007E023E002203049087002E002202E49087029480078022818D1EA
S224003DA02B480078022814D12749087029480078822805D11348008808210843114908807A
S224003DC010480088214908400E490880002001F083FC2448007801280ED1234800780028E6
S224003DE005D1FFF7D7FD00201E49087004E01E480078401E1C4908701C480088401C1B4976
S224003E00088010BDCCF1FF1FC0F1FF1FFFFE000062F1FF1FFFFF000060F1FF1FB9F1FF1FFB
S224003E20FFEF0000BAF1FF1FBBF1FF1FA8F1FF1F807A0000A4F1FF1FAAF1FF1FA0F1FF1F30
S224003E40B7F1FF1FCEF1FF1FB6F1FF1FFFFB0000B8F1FF1FCFF1FF1FD8F1FF1FA87A00004D
S224003E60D4F1FF1F9CF1FF1FDCF1FF1FDAF1FF1F00B5FFF739FE0A4800880A4988420ED024
S224003E800948007800280AD108480088FF210131084306490880064800780649087000BDBB
S224003EA0BEF1FF1FFFFF0000A1F1FF1FCCF1FF1FBB7A0000C0F1FF1FF8B506460C464027F1
S224003EC01E4800881E4908401C490880002E32D0002C30D008460078C007C00F002801D0A2
S224003EE0222728E015480088FF2101310840884205D114480078002801D037271BE01248CD
S224003F00008800F085F805460C480088012108430A49088000212846FFF7EEF80B49086011
S224003F20280EA0702802000EE0702804000E20716571062030803846F8BD0000CCF1FF1F29
S224003F40FEFF0000C0F1FF1FDAF1FF1FC4F1FF1F70B502464020002A4AD0002948D0254C11
S224003F602478E407E40F002C41D0224C248885002C43204D2C8000241F4D2C708C78240604
S224003F80CD782D0464190D792D0264194D7963191A4C2468A34211D10124194D2C70154C74
S224003FA0248802252C43134D2C802C462488154D2C40104D2C800224148019E00025104E83
S224003FC035700125104E3570104D2C880025ED430E4E358000250C4E35700C4D2C80054D1C
S224003FE02D88084E3540034E3580352000E0242070BD0000CCF1FF1FC0F1FF1FC4F1FF1F13
S22400400038F1FF1FFEFF0000A0F1FF1F9EF1FF1F70B50546FCF79AF814490880FCF796F8A0
S2240040201349088011480088124908600846008800040860084600680D49098840180D4966
S224004040086001200C4908700C4804880020C0430A49088001200A49087008480480002047
S224004060054908700348006870BD000032F1FF1F30F1FF1F34F1FF1FA0F1FF1F9EF1FF1F76
S224004080ACF1FF1F10B502464020002A1AD0002918D00D4B1B8840242340002B11D00B4BAA
S2240040A01B78022B0BD10323084C23700023084C2370022313800123064C236002E0242071
S2240040C000E0242010BD0000CCF1FF1FD0F1FF1FC8F1FF1F6CF1FF1F70B504460D464026B6
S2240040E0002C32D0002D30D068781949098888422AD120882946FEF7EEFF164988421AD1BB
S2240041000121154A1170154908880021C943134A11801146088000210F4A1170012F08D1AC
S22400412002210F4A117011460978A9700321218000E0722609E00A200949087008460078AC
S224004140A8700320208000E07326304670BD0000CAF1FF1FB8F00000A0F1FF1F9EF1FF1F86
S224004160BCF1FF1F0149086070470000B0F1FF1F10B50246402001230A4C23700023237017
S224004180094B1B88094C2340074C23800223084C237023461B788B70032313800023054C45
S2240041A0238010BDA0F1FF1FCCF1FF1FDFFF0000BCF1FF1F9EF1FF1F10B509210248FCF77E
S2240041C0FEF884B2204610BD00B0034010B5FFF7F3FF0F49088008460188002002F00EFD07
S2240041E0FEF7D6FB0B4800880B49098888420AD009480088502803D23320FEF78BF802E0BD
S2240042003320FEF743FA044800880249088010BD1CF1FF1F20F1FF1F1EF1FF1F10B57D20B7
S2240042200A490880084600880949088000200949088000213320FEF78DF83320FEF726FA9E
S224004240FFF7BAFF0446FEF741FB10BD1EF1FF1F20F1FF1F1CF1FF1FF8B507464024084E27
S2240042600F204003FDF7F2FD31460F204003FDF797FE0546002D00D100E072242046F8BD98
S2240042804433221110B50246052313804020002A3BD0002939D00B791C4C236023461B6885
S2240042A01B0223604B7924682343184C236023461B681B0223608B7924682343134C236058
S2240042C023461B681B022360CB79246823430F4C23600523138001234B7002238B70CB7044
S2240042E00B4B1B683F242402A34202D104230B710BE0064B1B68074C2468A34202D104237F
S2240043000B7101E004230B71402010BD80F1FF1F64F1FF1F84F1FF1F02464020704710B5B2
S2240043202620FDF7F7FF10BD10B500212620FEF711F800212020FEF70DF8FFF7F0FF00F021
S22400434001F810BD10B52020FDF7E4FF10BD000070B504460D467048844207D16F48406971
S2240043600121890408436D49486106E06B4840690121C9040843694948612878C007C00FD2
S22400438000280FD000BF207880210843207000BF6148844203D10A20FEF7BCFC02E00B2058
S2240043A0FEF7B8FC28784007C00F00280FD000BF207820210843207000BF5748844203D127
S2240043C00A20FEF7A7FC02E00B20FEF7A3FC28780007C00F002806D000BF2078102108432E
S2240043E0207000BF06E000BF207810218843207000BF00BF2878C006C00F00280ED0204681
S2240044000121002904D0027808231A43027003E0027808239A43027000BF00BF2878800689
S224004420C00F00280ED020460021002904D0027804231A43027003E0027804239A430270DB
S22400444000BF00BF28780006C00F002806D000BF207801210843207000BF00BF2888C0051F
S224004460C00F002806D000BF607880210843607000BF00BF28888005C00F002802D0204635
S22400448000F04EF828784006C00F002808D000BF207802210843207000BF204600F040F88A
S2240044A028880005C00F002806D000BF607801210843607000BF00BF28884005C00F002837
S2240044C006D000BF607808210843607000BF00BF2888C004C00F002806D000BF60780221AD
S2240044E00843607000BF00BF28780007C00F002804D020466A68A96800F017F8287880073D
S224004500C00F002806D000BF207840210843207000BF00BF70BD0000006007400080044020
S22400452041781022114341707047F7B582B006460F4638460499FBF76BFF01900020009098
S224004540002515E000240AE0691C0198C840611C884202D80120009003E0601CC4B2072C2E
S224004560F2DD00BF0098002800D003E0681CC5B2082DE7DD00BF082C00DB0724082D00DD36
S22400458008252001702108402907090F0843B07005B0F0BD02464020704702460320108080
S2240045A04020704710B502460020012A18D1274B1B788B4212D0254B19701B785B00244C93
S2240045C0E35A244C238000BF7D231B01224C238000BF00BF0123214C237000BF012034E064
S2240045E0022A18D11E4B1B788B4212D01C4B19701B785B001B4CE35A1B4C238000BFFF2389
S2240046002D331A4C238000BF00BF0123184C237000BF012019E0002A17D1164B1B788B42E7
S22400462012D0144B19701B785B00134CE35A134C238000BF7D231B01114C238000BF00BF26
S2240046400123104C237000BF012010BD6DF0FF1F4CF0FF1F82F0FF1F66F0FF1F6BF0FF1F43
S22400466061F0FF1F56F0FF1F80F0FF1F5AF0FF1F5FF0FF1F79F0FF1F2AF0FF1F7EF0FF1FB4
S22400468072F0FF1F77F0FF1F002000BF07E0002206214143034BC9180A71411C88B206280E
S2240046A0F5DB7047F4F5FF1F10B51748C068402188431549C8601548006808218843083078
S2240046C01249086008460068802188430F49086008460068202188430C49086008460068FB
S2240046E0102188430949086009488860094848600846006802218843801C0449086006488A
S224004700FFF726FE10BD0000008004408CF2FF1F002D3101A08601000060074010B50C4807
S224004720407802218843801C094948700846407840084000401C48707D20000148600549F2
S2240047400020FEF7A1FC02490020FEF72BFC10BD9CF0FF1FCD2E00001648174988800120C2
S2240047604870232008701548407820210843134948700020124948620620104908700846A2
S22400478040782F210840202108430C49487000200C49087000BF0948007910210840002814
S2240047A0F9D000BF054800790C2108400028F9D17047000003E800000020054000400640B2
S2240047C0008004400050064030B50146002202290BD24B01064C1819002303704370037594
S2240047E043754C00034D2B5300E05022104630BD94FEFF1F24F2FF1F10B5044660010E49A2
S22400480040184078042804D0600140184078092809D100206101084A891848700321204650
S22400482000F06AFC07E000206101034A50540121204600F017FE10BD94FEFF1FF8B50646C0
S22400484070013649441814207043354945182078012806D1002020700021304600F002FE76
S2240048604DE02078022804D108202070A87B207545E02078032842D1E089A189884206D1D0
S224004880002020700021304600F0ECFD37E0E07E401EE076A07E002802D0E07E002828DD27
S2240048A0207F00280DD1304600F03EFC0746002F06D03046FFF788FF0C21304600F0D2FD07
S2240048C01DE00A202070207F7F2806D8207F0521FBF79EFD401C207511E0207FF12805D334
S2240048E0207FF92802D80120207508E01A20207505E008202070A87B2075E87CA077607804
S224004900042804D107206070E87B607504E06078092801D100206070F8BD000094FEFF1F4E
S224004920F07A000010B504462046FBF766FD10BD30B503460020022B0ED2002904D05C01BC
S224004940064D6419248A0C80002A06D05C01034D6419A468146000E0502030BD94FEFF1FB1
S22400496030B500211CE04B010F4C181914234B430E4C1A19002303704370037543755368D2
S224004980436093688360137C4377537C837500234C00074D2B534C00064D2B53481CC1B24C
S2240049A00229E0D330BD000094FEFF1FF07A000024F2FF1F28F2FF1F70B5002554E06801BA
S2240049C02B49441868002B49085A00280EDD6800085A012803D10021284600F07BFB68008D
S2240049E02449085A401E6900224A5052207D012803DD207D401E20751FE0207D01281CD126
S224004A00002020752078082806D1002020700221284600F027FD10E020780A280DD12846E2
S224004A2000F082FB0646002E06D02846FFF7CCFE0C21284600F016FD00BF607D012803D947
S224004A40607D401E60750DE0607D01280AD16078072805D1002060700421284600F04CFBDC
S224004A6000206075681CC5B2022DA8D370BD000094FEFF1F28F2FF1FFEB506460F467001BD
S224004A8067494418142070436649451800200290607800287BD060780928FBD0687801A9B7
S224004AA0FCF7F0FD00900098002860D1A87C02210840022803D168460079082808D0A87CB0
S224004AC002210840002873D16846007902286FD3207E0007000F39780907090F884276D1C9
S224004AE0A87C02210840022803D16846007908281BD0A87C0221084000285BD1208A618A6A
S224004B00401A072803DD6846007908280DD0208A618A401A07284DDC207CA17C401A401C3D
S224004B20C0B269460979884244D10720607000206075207E401C2076012008E0395C638AE7
S224004B40A268D154618A491C6182411CC8B2618A228A914201DA0828F0D3608A218A884280
S224004B6006D1002060700021304600F0C5FA55E0A07D002802D0E07D401EE075A07D002882
S224004B8002D0E07D002803D0E87B607546E03BE00021304600F084FB0290029800283DD006
S224004BA03046FFF711FE0C21304600F0A5FA35E01DE00CE0A87C2021084020282ED13046DB
S224004BC0FFF702FE0B21304600F096FA26E0002060706075A87C20210840202802D13046AF
S224004BE0FFF7F2FD0621304600F086FA16E0A87C20210840202811D13046FFF7E5FD0B2177
S224004C00304600F079FA09E06078002806D03046FFF7DAFD0A21304600F06EFA0298FEBD66
S224004C2094FEFF1FF07A0000FEB507460E4678013D494418142078433C4945180020029023
S224004C402078002804D0A87C80210840002868D16078002805D0002060700521384600F0F4
S224004C604BFA687801A9FCF70DFD00900098002857D16846007908284AD130780007000DBD
S224004C80717840186082608A072837D90620607000206075608AA98988421FDC608A20826B
S224004CA001202076002005E0811C715CA2681154411CC8B20628F7D30620608200213846E4
S224004CC000F0EEFA0290029800282AD03846FFF77BFD0C21384600F00FFA22E00221384676
S224004CE000F0DEFA0290029800281AD03846FFF76BFD0C21384600F0FFF912E0A87C2021E3
S224004D00084020280DD10B21384600F0F5F908E0A87C20210840202803D10B21384600F04D
S224004D20EBF90298FEBD000094FEFF1FF07A0000FEB507460D46780171494418142078434A
S224004D407049461800200290207802280BD02078082808D0207803287ED1A07E00287BD0A5
S224004D60E07E0028F8D1707801A9FCF78BFC0090009800282FD1B07C02210840022803D1EE
S224004D8068460079082808D0B07C02210840002878D1684600790328FAD100202075E0899C
S224004DA0062841D16878A076A878207728780007000F002810D1A07EE076384600F0B4F9B3
S224004DC002900298002806D03846FFF7FDFC0C21384600F047FB90E028780007000F01280B
S224004DE00FD1B07B2075A07F002803DDA07F401EA07782E0002020700821384600F032FB7D
S224004E007BE028780007000F022806D1002020700921384600F026FB6FE0002020700721EB
S224004E20384600F01FFB68E0A07E6978884238D1207FA978884234D128780007000F00285E
S224004E4012D1A07EE076384600F06EF902900298002852D0384600E037E0FFF7B5FC0C2162
S224004E60384600F0FFFA48E028780007000F012810D1B07B2075A07F002804DDA07F401E79
S224004E80A0773AE014E0002020700821384600F0E9FA32E0002020700721384600F0E2FA8A
S224004EA02BE0002020700521384600F0DBFA24E0B07C2021084020281FD13846FFF784FCE4
S224004EC00B21384600F0CEFA17E0B07C20210840202812D12078032802D020780A280CD158
S224004EE0A07E002802D0E07E002806D03846FFF76BFC0A21384600F0B5FA0298FEBD0000C1
S224004F0094FEFF1FF07A0000FEB504460025022C3FD201202049088000202049087060009E
S224004F201F49085A002832D1142060431D49471878786946FCF776FB0646002E26D16846B9
S224004F400078F0210840002806D010280AD020280ED0302818D111E06946204600F024F8F2
S224004F60054612E069462046FFF75EFE05460CE069462046FFF780FD054606E06946204683
S224004F80FFF7D6FE054600E000BF00BF02E0522500E050252846FEBD3CF1FF1F3AF1FF1F2E
S224004FA028F2FF1FF07A0000FEB507460D467801344944181420784333494618002002902A
S224004FC02078002804D0B07C80210840002857D16078002805D0002060700521384600F07A
S224004FE08BF8707801A9FCF74DFB00900098002846D1B07C02210840022803D16846007939
S224005000082810D0B07C0221084000282FD128780007000F401C69460979884227D1684609
S2240050200079012823D928780007000F002827D028780007000F082822D205206070002009
S224005040607528780007000F2082002005E0411C695CA2681154411CC8B2218A8142F6DC71
S224005060002060700021384600F046F808E0B07C20210840202803D10B21384600F03CF8E7
S2240050800298FEBD94FEFF1FF07A000070B504460D460026022C16D2022D14D2002D04D187
S2240050A000206100094A50520EE0C8206100074A50526001064940184078002804D0204629
S2240050C0FFF782FB00E05026304670BD28F2FF1F94FEFF1F70B505460C4606480078854228
S2240050E006D1002C04D1012102480078FFF7CEFF70BD000058F1FF1F70B504460D46002DA9
S22400510008D1002C01D0012C04D10120044908700448047029462046FBF770F970BD0000AF
S2240051205BF1FF1F5CF1FF1FFEB504466001334945181420604332494718032028700020D2
S2240051402875687E0007000F203069460870012622E061002B4A515A6868405C6946885598
S22400516060001146085A401C6100505260001146095A14206043224A80188089814206D11A
S2240051802046FFF7CFFB002061001E4A5052E889401CE881701CC6B2E889A989884201DAD7
S2240051A0082ED6D3687E401C6876F87CA8771420604313494718142060434018807C022178
S2240051C00840002801D1002500E00025002D12D104E0AA2069468855701CC6B2082EF8D30F
S2240051E038786946FCF70CFB0546002D03D13878FCF7D6FA05462846FEBD000094FEFF1F6E
S224005200F07A000024F2FF1FFEB504466201214BD01814226243204BD11802220270828967
S2240052201205120F10326B461A70027B5A70002506E04268535D6E46AA1CB3546A1CD5B27A
S224005240062DF6D301224276C5816200134B9D5200220275CA7C8277142060430E49471818
S224005260142060434018807C02210840002801D1002600E00026002E0AD138786946FCF712
S224005280BFFA0646002E03D13878FCF789FA06463046FEBD94FEFF1FF07A000024F2FF1F11
S2240052A0FEB504460E4661011F4A8818022E02D10921417001E004214170302131436A4623
S2240052C01171827D69464A71427F8A71032504E0AA2101AA5155691CCDB2082DF8D3817DF8
S2240052E0C1750021417514206043104940180090142060434018807C02210840002801D1F4
S224005300002700E00027002F0CD10099087801A9FCF776FA0746002F04D100990878FCF7CB
S2240053203FFA07463846FEBD94FEFF1FF07A000070B50546022D18D268010D4940188089E6
S224005340072804D8284600F015F8044603E02846FFF75AFF0446002C08D02846FFF734FA08
S2240053600C21284600F07EF800E05024204670BD94FEFF1FFEB5064671011E4A88180121F5
S224005380017000210175017B0907090F6A461170002405E041680A5D6B46611C5A54CCB2B8
S2240053A08189A142F6DC1420704313494718142070434018807C02210840002801D10025C2
S2240053C000E00025002D12D104E0AA216A46601C1154C4B2072CF8D338786946FCF710FAA3
S2240053E00546002D03D13878FCF7DAF905462846FEBD000094FEFF1FF07A000030B503462A
S2240054000020022B27D214245C43144D6419A47C08252C40002C12D114245C430F4D641914
S224005420A4898C4201DB002901D1512014E05C010B4D6419A1815C01641962600CE000292B
S22400544001D1512008E05C01054D6419A1815C016419626000E0502030BD0000F07A00008B
S22400546094FEFF1F70B504460D4605480078844201D100F03DFB29462046FBF781F970BDC2
S22400548058F1FF1F02460120034B18800020034B18704020704700003CF1FF1F3AF1FF1FB0
S2240054A010B502460120002A01D0002901D100200BE04B7880242340002B03D00123034C7D
S2240054C0237002E00023014C237010BD1BF2FF1FF8B506464027412E1AD006DC022E0BD0B1
S2240054E0032E0CD0402E1DD10FE0422E13D0432E14D0602E16D105E03D4C254616E03D4CDA
S224005500254613E03C4C254610E03C4C25460DE03B4C25460AE03B4C254607E0344C2D34CF
S224005520254603E0374C2D3C254600BF00BF364800882F4A811A904233D00EDC3349401896
S224005540002830D019210902401A27D005218902401A0DD02D283AD121E02D2920D00520D4
S2240055608002081A19D019210902401A2FD119E024482D38844203D02548007825490870CC
S22400558021480088A04207D01F4804800C2022498870304601F098F922E000BF00BF00BFAB
S2240055A000BF00BF00BF17482D38844202D100201849087014480088A04207D012480480D8
S2240055C00C2015498870304601F07EF908E0134800880D4908800020FDF786FBFF2700BF43
S2240055E000BF402F01D10E4805803846F8BD00006996000069C30000693C000069AA0000B5
S224005600695500009669000010F2FF1F97C3FFFF687C000014F2FF1F1CF2FF1F6E7C000032
S22400562012F2FF1F30B502460023002A01D0002901D1FF2040E01488032C3CDB1F4C2478D5
S2240056401F4D2C7025E01E4C247824011D4D2C5D0D78AC4218D11A4C24782401194D6419B4
S2240056606488194D2D88AC420ED1154C24782401144D6419247A154D2D782C40134D2D783B
S224005680AC4201D1012304E00D4C2478641C0C4D2C70002B05D10A4C24780D4D2D78AC42F3
S2240056A0D1DB012B05D1064C24780A4D2C70402002E0312000E0312030BD000020F2FF1F75
S2240056C01AF2FF1FD87B000016F2FF1F22F2FF1F6A7C000021F2FF1F0249C8700821014AE2
S2240056E0917070471CF2FF1F70B506460D46002E01D0002D01D1FF24B9E02946304600F06E
S22400570087FD0446402CF7D1287836280DD006DC142809D023280BD034280BD106E037280D
S22400572005D03D2806D104E000BF00BF00BF00BF00BF05E02946304601F05CF9044600BF9B
S22400574000BF402CD8D12878352829D010DC232822D006DC11281AD014281CD0192829D1E9
S22400576018E0272814D028281ED0342822D116E03E2813D006DC362813D0372812D03D2864
S22400578018D10AE0852804D0872813D10BE000BF00BF00BF00BF00BF00BF00BF00BF00BF7B
S2240057A000BF00BF00BF00BF2946304600F00AFE044600E000BF00BF402C58D131882D48A0
S2240057C000780C2250432C4A80188088814208D0284800780C21484311464018808800285B
S2240057E044D1287810281CD1224800780C21484321494018806800280AD01E4800780C2179
S22400580048431D49401829468268304690470446402C2CD169784806400EFFF759FE0446CD
S22400582025E0144800780C21484313494018806800281CD00F4800780C2148430E494018EC
S22400584029468268304690470446782C0FD17F200A4908712978094841718471002007495B
S2240058604880012008700020308000E01324204670BD00001AF2FF1F187B000084FEFF1FEB
S22400588070B506460D46002E01D0002D01D1FF244EE068780002A97840182649088029462F
S2240058A0304600F0FFFC0446402C41D12946304600F086FE0446402C3AD129463046FFF7C5
S2240058C0B1FE0446402C33D130881B49097809011A4A8918C988884207D0174800780001E4
S2240058E011464018C088002821D113480078000112494018C06800281AD00F480078000101
S22400590040182946C268304690470446782C0FD17F200B4908712978094841718471002051
S22400592007494880012008700020308000E01324204670BD16F2FF1F1AF2FF1FD87B000094
S22400594084FEFF1F70B506460D46002E01D0002D01D1FF2466E0A8780002E9784018324921
S22400596008802946304600F0E5FC0446402C59D12878322804D02946304601F0ADF8044671
S224005980402C4FD12946304600F0DCFE0446402C48D12946304600F0A9FA0446402C41D1B8
S2240059A03088224909780901214A8918C988884207D01E480078000111464018C088002838
S2240059C02FD168784006400E012804D0022808D0032812D10BE02946304600F08DFF0446AB
S2240059E00DE02946304600F0C9FF044607E02946304600F021F8044601E0122400BF00BF1A
S224005A00782C0FD17F200B4908712978094841718471002007494880012008700020308057
S224005A2000E01324204670BD18F2FF1F1AF2FF1F087C000084FEFF1F70B505460C46402619
S224005A40002D01D0002C01D1FF2620E0114880780C281BD00F4800880F490988884215D138
S224005A600E48007800010E494018C068002809D00A480078000140182146C2682846904781
S224005A80064604E00348C078207100E02426304670BD00001CF2FF1F18F2FF1F1AF2FF1F72
S224005AA0087C00000B480C4908800C49088000200B4908700B4908704880886088818873E4
S224005AC001200949087000200849088004208870C87070476969000010F2FF1F12F2FF1FBE
S224005AE014F2FF1F84FEFF1F22F2FF1F1CF2FF1F002001498873704784FEFF1F70B5064652
S224005B000C46002C01D1FF251BE0224631460E480078FFF773FC0546002D03D10A480078E9
S224005B20FFF706FC20787F2802D1A078782807D0002105480078FFF7A9FAFF200249087066
S224005B404025284670BD000058F1FF1F70B50F2464031125A7480078012802D10020A64972
S224005B600870A6480088401CA4490880A4480088A44A811A90425ED00EDCA349401800280E
S224005B805BD019210902401A52D005218902401A0DD02D287ED14CE02D294BD00520800244
S224005BA0081A44D019210902401AF3D144E091480078012814D0022836D18E48807B00289B
S224005BC00DD18C49087091480078914908709148002804D0874A91689089FFF78FFF24E0B2
S224005BE084484088012801D100F05AF981484088002813D17F48807B002814D1834800781F
S224005C008349087027207B494880824800280AD0091D0320FFF772FF054604E07548408838
S224005C20401E7449488000E000BF00BF64E000BF00BF00BF00BF00BF00BF6E480078012809
S224005C4014D0022838D16B48807B00280DD1694908706E4800786E4908706E48002804D03B
S224005C60644A91689089FFF749FF26E061484088012801D100F014F95E484088002815D136
S224005C805C48807B002816D16048007860490870272000E028E0574948805E4800280AD0D1
S224005CA0091D0320FFF72AFF054604E051484088401E5049488000E000BF00BF54480078B6
S224005CC000280BD154484E490880544908800C2053498870012000F0F7FD04E04C48007826
S224005CE0401E4B49087007E04E480088444908800020FCF7F9FF00BF00BF2078442812D1AB
S224005D00607833280FD1A07822280CD1E078112809D13B4800883B49884204D008463849C5
S224005D2008803E4908802078442819D16078332816D1A078222813D1E078112810D13A4885
S224005D40007800280CD101203749087037490978491CC8B23649FBF753FD0220FBF720FDD6
S224005D6034480078012843D12448008805283FDB0120C0033049086000202E49087000F0EE
S224005D8083FF00202D4908700FE02B480068FCF75DF829480068FF30FF300230264908601C
S224005DA026480078401C2549087024480078A028EBDB0F204003FCF749F800F081FF00200E
S224005DC01C49087005201E49088071201D49087001204870FF2088700020C8700420087179
S224005DE00846044988601648008888810220087070BD000084FEFF1F3AF1FF1F7AF1FF1FF3
S224005E0010F2FF1F6996000097C3FFFF687C000014F2FF1FFD5A00006969000012F2FF1FB3
S224005E201CF2FF1F6E7C0000FFF1FF1F08F2FF1F00F2FF1F78F1FF1F0CF2FF1F09F2FF1F55
S224005E40F8F1FF1FFAF1FF1F10B503460120002B01D0002901D100201EE0104C2478022CC3
S224005E6013D1112A04D0122A03D0312A04D100BF00BF00241C8007E08A700C784C707F24E9
S224005E800C7003241C8000BF06E08A700C784C707F240C7003241C8010BD000022F2FF1FFE
S224005EA0704702460120002A01D0002901D100201AE01388002B16D00B78102B0FD11388C8
S224005EC01B1D13801388062B08D100238B703223CB7000230B71C8234B7100E000200B78D6
S224005EE040330B7000E000207047000070B502460024002A01D0002901D1FF204AE015888B
S224005F00042D46DB244D2D78244E35704D786B065B0E2CE0214D2D782D01214E755D0E784A
S224005F20B5421FD11D4D2D782D011D4EAD196D789D4217D1194D2D782D01AD196D88194E00
S224005F403688B5420ED1154D2D782D01144EAD192D7A154E36783540134E3678B54201D146
S224005F60012404E00D4D2D786D1C0C4E3570002C05D10A4D2D780D4E3678B542CADB012CBC
S224005F8005D1064D2D78044E3570402002E0312000E0312070BD000021F2FF1F1AF2FF1FEB
S224005FA0087C000018F2FF1F22F2FF1F6B7C0000FFB581B006460F461D460120009000205D
S224005FC087490870874903980870002E01D0002F02D10020009000E1012000900020824963
S224005FE00870824908708249087082480088824A811A90421FD00EDC8049401800281CD005
S22400600019210902401A13D005218902401A0DD02D281ED10DE02D290CD005208002081AE5
S22400602005D019210902401A13D105E01BE000BF00BF00BF00BF00BF00BF6E4908887049A9
S2240060406C4A11806F4909786F4A11706949088009E06E480088674908800020FCF744FE93
S2240060600020009000BF00BF0098012822D13878312816D008DC10280DD011280CD02728ED
S2240060800BD0282814D10DE03E2807D0852806D087280DD104E000BF00BF00BF00BF00BF12
S2240060A000BF00BF39463046FFF7FAF9009000E000BF00BF0098012870D138782F2848D070
S2240060C018DC23282FD00CDC14282ED004DC102824D0112858D122E0192827D0222853D145
S2240060E036E0242837D027281AD0282824D02E284AD12FE037281DD007DC3138030000F0AA
S22400610096FE06363743161718433D280CD03E2807D0852806D0872836D10CE000BF00BF87
S22400612000BF00BF00BF00BF00BF00BF00BF00BF00BF00BF00BF00BF002D01D0022D05D163
S22400614039463046FFF7D0FA044600E011241DE000BF00BF00BF002D01D0022D05D139466A
S2240061603046FFF78DFB044600E011240EE000BF002D01D0022D05D139463046FFF7E2FB4F
S224006180044600E0112401E0112400BF00BF402C13D0FF2C03D1002030801DE01AE0782C4E
S2240061A004D1782000900020308015E0224639463046FFF749FE00900EE00948007800280F
S2240061C005D139463046FFF76CFE009004E00020308001E00020308000BF009805B0F0BDE1
S2240061E01BF2FF1F22F2FF1F1AF2FF1F20F2FF1F21F2FF1F10F2FF1F6996000097C3FFFF3B
S22400620069690000687C000014F2FF1F6E7C000030B502460023002A01D0002901D1FF2050
S22400622034E01488002C30D01DE0194C24780C256C43184D2C5D0D78AC420FD1144C247862
S2240062400C256C43134D6419A479134D2D782C40114D2D78AC4201D1012304E00C4C24782F
S224006260641C0B4D2C70002B05D1094C24780B4D2D78AC42D9DB012B05D1054C2478084DD0
S2240062802C70402002E0112000E0112030BD00001AF2FF1F187B000022F2FF1F697C000018
S2240062A020F2FF1F30B502460023002A01D0002901D1FF2032E01488002C2ED01BE0184C0D
S2240062C024782401174D2C5D0D78AC420ED1144C24782401134D6419247A134D2D782C40AC
S2240062E0114D2D78AC4201D1012304E00C4C2478641C0B4D2C70002B05D1094C24780B4D1C
S2240063002D78AC42DBDB012B05D1054C2478084D2C70402002E0112000E0112030BD0000DE
S2240063201AF2FF1FD87B000022F2FF1F6A7C000020F2FF1F30B502460023002A01D000291F
S22400634001D1FF2032E01488002C2ED01BE0184C24782401174D2C5D0D78AC420ED1144CB0
S22400636024782401134D6419247A134D2D782C40114D2D78AC4201D1012304E00C4C2478AC
S224006380641C0B4D2C70002B05D1094C24780B4D2D78AC42DBDB012B05D1054C2478084DAD
S2240063A02C70402002E0112000E0112030BD00001AF2FF1F087C000022F2FF1F6B7C000004
S2240063C020F2FF1FFEB507460C4640200190002501200090002F01D0002C02D1FF200190C0
S2240063E0DAE02078282814D006DC10280BD011280AD0272811D108E03E2807D0852806D031
S22400640087280AD104E000BF00BF00BF00BF00BF00BF60784606760E01E0667800BF00BFAA
S2240064205E4800785E4908705E4800885E4A811A904229D00EDC5D49401800282AD019219A
S2240064400902401A14D005218902401A19D02D2823D110E02D2911D005208002081A04D0ED
S22400646019210902401A18D111E0102000901EE0202000901BE04020009018E080200090FD
S22400648015E00120009012E0022000900FE0042000900CE00820009009E0454800884149DE
S2240064A008800120FCF720FCFF20019000BF00BF0198402870D111E0394800780C2148430D
S2240064C03C494018807800990840002801D0012504E033480078401C31490870002D0ED1B1
S2240064E02F48007834490978884208DA2C4800780C2148432F49085C21788842DCD0012D41
S22400650048D1207836280CD006DC14280CD023280BD034280BD105E0372804D03D2806D1DF
S22400652004E000BF00BF00BF00BF00BF29E0234800781B490870002511E0194800780C21D3
S22400654048431C494018807800990840002801D0012504E012480078401C11490870002DE5
S2240065600ED10F48007814490978884208DA0C4800780C2148430F4940184078B042DCD054
S22400658000BF00BF012D02D14020019004E07E20019001E07F2001900198FEBD20F2FF1FDE
S2240065A01AF2FF1F12F2FF1F6996000097C3FFFF707C0000187B0000697C000021F2FF1F9E
S2240065C0F8B506460C464020009000250127002E01D0002C02D1FF2000909FE050480078F2
S2240065E05049087050480088504A811A904224D00EDC4F494018002823D019210902401AD6
S22400660013D005218902401A15D02D281BD10EE02D290ED005208002081A04D0192109025D
S224006620401A10D10BE0102717E0202715E0402713E0802711E001270FE002270DE004277B
S2240066400BE0082709E03B480088374908800120FCF74AFBFF20009000BF00BF0098402899
S2240066605CD10FE02F48007800013349401800793840002801D0012504E02A480078401CFB
S22400668028490870002D0DD1264800782B490978884207DA2348007800012749085C21782A
S2240066A08842DFD0012D37D11D4800781D490870002519E01B48007800011F4940184088E9
S2240066C01F49098888420AD11648007800011A49401800793840002801D0012504E0114838
S2240066E00078401C0F490870002D0DD10D48007812490978884207DA0A48007800010E4970
S224006700085C21788842D5D0012D02D14020009004E03120009001E07F2000900098F8BDF5
S22400672020F2FF1F1AF2FF1F12F2FF1F6996000097C3FFFF707C0000D87B00006A7C00005C
S22400674016F2FF1FF8B506460C464020009000250127002E01D0002C02D1FF2000909EE05B
S224006760504800785049087050480088504A811A904224D00EDC4F494018002823D01921A9
S2240067800902401A13D005218902401A15D02D281BD10EE02D290ED005208002081A04D0BC
S2240067A019210902401A10D10BE0102717E0202715E0402713E0802711E001270FE00227CD
